:40000000FC0F002011000000511300005113000008B501F0A5F90000F8B572B680220021D2004D4801F0CFFD802200244B480021D20001F0C8FD201C494AFF25A75810327E
:400040003E1C111C4300AE433D4001334019D318420001328A18934206D0591E09781D7889190D700233F6E70434102CE4D13D4A3D4B3E491A603E4A3E4B3C251A60EE221B
:400080003D4B12021A6099223C4B3D481A6099233C4A1B0413603C4A13603C4A116002213B4A13603B4A13603B4A13780B4313700378AB43283D2B43037016201378374D3D
:4000C00003431370D122364B40181A60354A364B1A60D022354B1A60354B523A1A60354A354B1A608022354B92011C60344B1A60D822344B12011A603122334B1960334B94
:400100001A608022324BD20219602B6813432B6001F03AFB2A682F4B2F4913402B602F4A2F4B09201A6020222E4B1A6080222E4B12061C6000242D4B1A602D4A2D4B2C60D2
:400140001A602D4A2D4B1A6001F0E0FA092001F0E5FA2B4B1C60F8BD00300F4000400F40101C00000000FFFF0000014000004B8D30333303040001400C0001401000014064
:4001800001700F4000500F4010500F4018500F4020500F4030500F4000700F4000010B400000044002E0D800080004401800044000010440B06D1B0008010440000204402B
:4001C0000802044008030440000404400804044018040440FFFFFBFF4D1900000600008004010B40080202400C02024008010B400200008000000240100000804000024070
:400200000C020B4010B5064C2378002B07D1054B002B02D0044800E000BF0123237010BD5001002000000000001C000008B5084B002B03D00748084900E000BF0748036860
:40024000002B00D108BD064B002BFBD09847F9E700000000001C000054010020D0000020000000000047011C00784B788A781B02120413431843CB781B06184370470378C0
:40028000407800021843704708B5084B1A6810231340074A00D113601368802B04D10548FFF7E1FFFFF7DEFF08BDC04600030B40C0000020C17F00005E4BF0B51C68DB23CB
:4002C00085B09B00E5180390EA79A8792B7A120202431B0413431A1C00206B7A1B061343554A190AA21813705170190C1B0ED370917040225149A874E87400F021FF504887
:40030000FFF7BDFF00904F48FFF7B9FF071C4E48FFF7A9FF231C051C201C18332E300293FFF7ADFF0190201C2C30FFF7A8FF061C201C3030FFF797FFCD23039A9B00002A01
:4003400008DDB7420ED185420CD1019A00998A4208D166E0B74264D1854262D1019A00998A425ED9E35800209847FA20400001F0EBF93648FFF777FF354BC6091B68F70181
:40038000BB4246DA00230093FF2E37D8DB239B00E518EA79A8792B7A120202431B0413431A1C00206B7A1B061343234A190AA21813705170190C1B0E9170D370391CA8745E
:4003C000E874802200F0BCFECD239B00002810D001220099E358521A0092DB20002A00D1E7209847301C029901F0B8F880370136CAE7FD20E3589847962010E0CD239B0062
:40040000E358FE209847FA20400001F09DF901200EE0CD239B00FD20E3589847FA20400003E0FC20E3589847642001F08DF9002005B0F0BDFC0F00207A030000C07F0000FB
:40044000D67F0000D47F0000D87F0000C17F0000C01C000070B5FFF717FF00F023FF62B62E4B1C68CD239B00E358FD2098470126CD2501F0BBFAAD00002809D0C82001F001
:4004800063F96359012EF0D1FF2098470026EFE76359FD30984700F049F800F053F80028F9D100F08FFB002803D1642001F04CF9F7E7CD239B00E358FE2098470026301CD1
:4004C000002100F07BFC00281CD0211C14482031032201F080FB002811D1257E211C213D6B425D411831EDB249190E48062201F072FB002803D1281CFFF7DEFE02E0013601
:40050000B6B2DCE7CD239B00E358FF2098478022054B1A6001F00CF9002070BDFC0F0020041C0000081C0000C00000200122044B52421B6800215A61C6229200995470474B
:40054000FC0F002008B5044B1A68C9239B00D05800F0FCFAC0B208BDFC0F002008B5074B021C1B68C920191C800019311858FF31012300F029FAC0B208BDC046FC0F0020F4
:4005800008B5074B021C1B68C920191C800019311858FF31012300F06FFAC0B208BDC046FC0F0020F8B5CF231B4D9B002E68071CF3589847FF2400282BD0CD222B6892003F
:4005C0009C5804329B589847FD231840A047002F1AD010277069FFF7D3FF041E03D0013FFFB2002FF6D1002CFDD1C623CD229B00F4542B6892009D5804329B5898470223D7
:400600001843C0B2A84704E0C62301223C1C9B00F254201CF8BDC046FC0F002008B5064B1A68C6239B00D35C002B04D00120FFF7B9FF0028FAD108BDFC0F00200B4B70B544
:400640001E68736998420FD0041C0025FFF7E6FF201CFFF783FF013DEDB2002801D0002DF6D10028FDD1746170BDC046FC0F0020064B10B51C68A3689847E36898470028C2
:40068000FBD023699847C0B210BDC046FC0F00200023F0B5061C181C0131891A8B420DD007249F18FD08751BED7B3C4025412C1C01252C409C405B192043EFE7F0BD002303
:4006C00083607047002370B5C360051C4020141C0143C8B2FFF7CCFF200EFFF7C9FF2014C0B2FFF7C5FF2012C0B2FFF7C1FFE0B2FFF7BEFF9520FFF7BBFF0D4EFF20FFF705
:40070000B7FF7F23021C9A43D3B2041C002B04D1FF20FFF7ADFF201C09E0013E002EEDD10123FF20EB60FFF7A3FF0120404270BD8813000038B5051C0B4C37210022281CFC
:40074000FFF7C0FF281C29210022FFF7BBFF002804D180239B006B60013003E0013C002CEBD1201C38BDC0468813000038B50023051CC3604020141C0143C8B2FFF778FF44
:40078000200EFFF775FF2014C0B2FFF771FF2012C0B2FFF76DFFE0B2FFF76AFF9520FFF767FF0A4CFF20FFF763FF7F23021C9A43D3B2002B09D0013C002CF3D10123FF202A
:4007C000EB60FFF755FF0120404238BD8813000070B50024051CC4607A20FFF749FF201CFFF746FF201CFFF743FF201CFFF740FF201CFFF73DFF9520FFF73AFF144EFF209C
:40080000FFF736FF7F23021C9A43D3B2041C002B12D1FF20FFF72CFFFF20FFF729FFFF20FFF726FFFF20FFF723FF0123FF20EB60FFF71EFF201C09E0013E002EDFD1012348
:40084000FF20EB60FFF714FF0120404270BDC0468813000070B5051C114B124C1E68D0239B00F35832209847281CFFF7B1FF37210022281CFFF726FF8022281C2921D2053A
:40088000FFF720FF002806D1281CFFF7A1FF012302206B6003E0013C002CE0D1201C70BDFC0F00208813000073B50024051CC4604820FFF7DDFE201CFFF7DAFE201CFFF707
:4008C000D7FE0120FFF7D4FEAA20FFF7D1FE8720FFF7CEFEFF20FFF7CBFE030612D46B4604261870FF20FFF7C3FE6B46013E1855002EF7D10123FF20EB60FFF7B9FE6B46FD
:4009000018780AE0054B01349C42E3D10123FF20EB60FFF7ADFE0120404276BD404B4C0038B5174B051C1C68C7239B00E158154801F082F8236880B2002198476368984769
:400940001024FF20013CFFF793FE002CF9D1281C211C221CFFF7B6FE012801D000200DE0281CFFF7A1FF012803D1281CFFF772FF04E00528F2D1281CFFF7DCFE38BDC04695
:40098000FC0F0020006CDC02002370B5061C0C1C151CC360FF20FFF76BFEFE28FAD16519FF20AC4204D0FFF763FE20700134F7E7FFF75EFEFF20FFF75BFE0123FF20F360BE
:4009C000FFF756FE002070BDF7B501938368051C0E1C171C141C002B18D0019BFB189C4212D26A68281C62431121FFF76BFE00280FD18022311C281C9200FFF7C5FF80238D
:400A00009B00F6180134E8E7002003E00120404200E00120FEBD002370B50C1C161CC360051CFE20FFF724FEA619B44204D02078FFF71EFE0134F8E7FF20FFF719FEFF20F9
:400A4000FFF716FEFF20FFF713FE1F231840052806D00124FF20EC60FFF70AFE201C0AE0FF20FFF705FE0028FAD00123FF20EB60FFF7FEFD002070BDF7B501938368051CD3
:400A80000E1C171C141C002B18D0019BFB189C4212D26A68281C62431821FFF713FE00280FD18022311C281C9200FFF7B4FF80239B00F6180134E8E7002003E001204042BE
:400AC00000E00120FEBD7FB509210022051C0024FFF74CFEA04235D1281C69461022FFF753FFA0422ED168467F217E22FFF7D0FDA0420AD0012825D168603F21684630224B
:400B0000FFF7C6FD441CA4021CE080239B006B6049213E226846FFF7BBFD3121061C2F226846FFF7B5FD5321051C50226846FFF7AFFD01231C1C84400235F018AB40444388
:400B40005C43640A201C04B070BD000038B5114B041C1D68FFF7E4FEA060002801D1012415E0201CFFF7AFFF802220601021201C9200FFF7A7FD041EF1D1C8239B00E9582B
:400B8000054800F059FF2B6880B2211C9847201C38BDC046FC0F0020006CDC02D122084B92001B689B18002803D118895B68181A04E01A7B023850435B68C0187047C046D5
:400BC000FC0F0020F8B55D4B00201C68FFF736FD5B4BE65C5B4BE018E15C437885781B020B432D041A1C2B1CC57813432D061D43A7235B00E35C462B15D15023FF33E35C4F
:400C0000412B10D11033FF33E35C542B0BD15223FF33E35C312B06D12233FF33E35C362B01D100250E26281CFFF708FDD1239B00E118231C24334D60FF33DA799F79120232
:400C40003A43100908811A7BDF7A12023A435F79BC46002A08D0DF781B791B023B4367467A439B181A1811E09F7E5A7E3F023A43DF7E3F0417431A7F1206174362467A4317
:400C80001218D8781B791B020343D218231C521924334A60FF339A78043E0A732422FF32A05C5A78F6B2120202434A81DA781B7900201B021343ED18D1239B00E5500125B2
:400CC00010336D42E5500A2E36D801273B1CB3401E1C1D4B1E4224D1C0235B001E422BD0231C2633FF33D87F0133DA7F0133DB7F120202431B0413431A1C231C2933FF3378
:400D0000DB7F1B061343114A190AA21813705170190C1B0ED370D5239B00E4189170657509E00A4BE318187058709870D870D5239B00E4186075381CF8BDC046FC0F0020F4
:400D4000DA020000DE0200000504000076030000174BF7B51E68331C1933FF330093D5239B00F3185B7D002B02D08500114C01E0114C4500D1239B00F3185F89281C391C4E
:400D800000F0E0FE281C0191391C00F055FED1239B00F358C018FFF751FC009B019A98582040041B631E9C4164422040FEBDC046FC0F0020FFFFFF0FFFFF0000AA4BF0B569
:400DC0001C688BB0231C1933FF330893DB239B0001900791E018C37A817A067B1B020B4336041A1C331C1343D522271C9200467BA15836061E431837A3188E4202D0A65024
:400E000000221A711A79002A09D0DD880199A9420ED804D1012A02D1079A002A08D0301CFFF7BCFE0023029000931D1C059327E01A7D1E6903929A6802921B7B0093002378
:400E400005930298FFF7FAFB039B089A5B01D3181878002800D1AEE0E52818D1039A20330132D2B20392102AF2D1D1239B00E3181B7B009A934200D88FE0029B013302934C
:400E8000009B0133DBB2009300230393D9E7DA7A0F2A38D107990029E0D0013802400D204243BA18101C591C8C46511D049161460978017002218C44049901308842F6D15B
:400EC000181C111C0E300B31069009910699049809780170011C01310491069904980231069109998842F1D1197FD172997F11731978490601D5002151730F2219780A4085
:400F0000012AABD108E00599002907D0019A95424DD000220135ADB205929FE72E2804D15978202901D1D10698D408210A4095D101998D422ED1995CB9540132082AFAD154
:400F4000197A621CD177597AA21CD177997AE21CD1770021221DD177079A8A4229D0221C211C24322031013A107850708A42FAD1227E2E2A02D02E21621CD1773A1C1178DE
:400F8000202901D039700137013211780029F6D139700EE00135ADB260E7301CFFF7D8FE061CFFF7FBFD00230290009368E7022001E00120019D5A7D197D12020A431704AD
:400FC000DA7E997E12020A432849BA186118170A0A704F70170C120ECA70DB2292008F70A1186A4612790A75019A120A4A75597F1A7F090211439A7F12040A43111CDA7F45
:4010000012060A431A49170A61180A704F70170C120ECA70DB228F70D97A9200A154DA7D997D12020A43134961180A70120A4A705A7E1B7E120213430F4AA21813701B0A39
:40104000537000280DD0D5239B00E4186B461B7BE5802375029B2661A3606B461B78207123730BB0F0BDC046FC0F002072030000820300006F0300006D030000F8B52D4BA9
:40108000061C1D68DB239B00EC18E37CA27C1B021343984216D2E279A079237A120202431B0413431A1C0021637A1B061343224A180AAA1813705070180C1B0E9070D3708D
:4010C000A174E174E27CA37C12021A43A07BE37B277C617CB2421BD01A02131C03433804034308061843FFF733FE134B020AEB1818705A70020C000E9A70D870E37CA27C73
:401100001B02134301339BB2A3741B0AE374D9E7D5229200AD181B023F046A7D03433B4308060343501E82410448524202431340181CF8BDFC0F00207A030000FFFF000083
:40114000F0B5D124DB26564B89B01B68A40001931B191D7B5C89019BB6009E19F37DB77D1B021F43337E1B043B43777E3F063B43994201D300268FE00792019A65431832F2
:401180000392019A5B1A1932FF320F1C0490081C291C0592069300F04FFC45437D1B211C0290281C00F048FC6B46071C44431889FFF764FFF37BB17B307C1B020B4300040A
:4011C0001A1C031C707C134300061843FFF7E6FCC019FFF733FA039A2C1B9446151C079B63440793069B63440693039BEE1A079BB6B29D4239D0D122019B92009B185B8920
:401200009C422FD3049B012B10D0D122019B92009B181B7B01379F420ED3029B0027013302936B461889FFF729FF05E00020FFF7B9F90028E9D09DE7DB22019B92009C18D1
:40124000E37BA17B207C1B020B4300041A1C031C607C134300061843FFF7A0FCC019FFF7EDF90024069B9D4203D1049B012B13D10CE0049B012B03D12B78059A135502E07C
:40128000059B1B5D2B7001340135AEE70020FFF789F9002800D06DE7301C09B0F0BDC046FC0F0020E32210B5174C0021201C920000F089FC154B164A1C60C7239B00E25030
:4012C000144A0433E250144B144A2360144B6360144BA360144BE360144B2361CE239B00E250134A043BE250124A0833E250124A0433E2504C33E218683BE250E7226433D6
:401300009200E25010BDC0466C010020FC0F0020A086010000093D0031150000511500000914000041140000311400002514000045150000FD1900004917000008B5E323C2
:4013400002489B00C018FFF7BAF908BD6C01002008B500F003FC03680C2B00D1FEE7FEE770B51049104B01394A1C15D000221E685C689D68A018AA4203D0B058A050043258
:40138000F8E7021CDC68151AA54202D0002520C2F9E710330139E7E700F0E6FBFFF75AF8FEE7C04601000000B01C000008B500239A000B49032B01D80A4989580A48013372
:4013C0008150302BF4D1FEF727FE0022074B01211A608022D20513680B43136008BDC046511300000000000000000020C80000208021044A08B5136809060B43136000F0FF
:401400002DF808BD0000074010B5054C2378002B03D100F049F801232370FFF7E9FF10BD08050020014B18687047C04640030740024B18680F2318407047C0460803074092
:40144000044B1A680F231340082BF9D0024B18607047C0460802074040020740F021074B09051A680A43F0211A601A6809060A431A60034B1A88034B1A60704700000140EB
:401480000A050020880F07400549064B0A6880061340C02212051040184308607047C04620000740FFFFFFF30721002008B5104A104B1A60104A114B1A60114B114A136087
:4014C000114A1160114A1360114B1860114B1860114B1860114B1860114B1860114B1860114B18601A68114B1A80FFF7CDFF08BD0F00000100000740010000802000074048
:401500000701008000030740040307400002074004020740880E0740C80E0740480F0740080F0740C80F0740880F07400A050020034A13681B0C1B04184310607047C0463E
:4015400000000240014B18707047C04672000F40014B1878C0B2704772000F40F0B50024ADB008940994FF2800D9AEE0A14200D1ABE0039080220CA800F01CFB0222211C94
:4015800001940AAB9000C058002802D00918044301920132222AF4D1002903D1002C00D096E000E0002402947F224E494E4D0A914E4F5A604E4A2B603A60C0462B68059146
:4015C0001B0F06920F2B02D12B68DBB205E02A680023120F0A2A00D02B680893089E002E00D07CE000F01EFA424A434B116809961960089B04900792002B19D13F4A039952
:401600000A920A9A09040A430AA90A9229603C49354A3960C0462968090F0F2902D11368DBB204E01168090F0A2900D013680893089E002E3DD1002C3BD00CA8311C80228F
:4016400000F0C1FA019B029A0AAC9B001A51059B069A0A937F2363602C60234B3A60C0462A68120F0F2A02D11E68F6B204E01A68120F0A2A00D01E680896089B002B18D19C
:40168000204A03990A920A9A08041F4910430A90154A2C603960C0462968090F0F2902D11368DBB204E01168090F0A2900D013680893099B002B04D10F4A079912680A602E
:4016C0000993049800F0B2F909E00423089306E0019A0124920098589950029064E708982DB0F0BDB6D7000008000040040000400400008008010B400C050020B6D80000A4
:4017000005000080B6D9000006000080024B8000C318186819607047400000201F2318401E3B8340181C014B1860704700E100E0034A044913689BB20B4313607047C04651
:401740000CED00E00400FA0510B5041C8022074B1202944205D9586800F05AF9044BE418F4E79868604300F053F910BDD40000200080FFFF08B5034B1B7B584300F048F938
:4017800008BDC046D4000020F0B5051C87B000F049F9EB1E049003932D2B5BD8304B1B789D4204D82F4B1C782F4BE4B21EE02F4B1B789D4204D82E4B1C782E4BE4B215E0BF
:4017C0002D4B1B789D4204D82C4B1C782C4BE4B20CE02C4B1B789D4204D82B4B1C782B4BE4B203E02A4B1C782A4BE4B21B78039ADBB20193284B294F9A5C059302922F2A96
:4018000004D92A2D02D919263E6008E03F233E681E40029BB34205D2204B029A1A60052000F0F6F81B4B1E4AED182B780520DBB213601C4B019A1C601B4B1A60FFF79AFFF9
:40184000029BB34206D9059B039A05209B5C3B6000F0DEF8049800F0E9F807B0F0BDC046C0F1FF0FC1F1FF0FC2F1FF0FC3F1FF0FC4F1FF0FC5F1FF0FC6F1FF0FC7F1FF0F52
:40188000C8F1FF0FC9F1FF0FCAF1FF0FCBF1FF0FCCF1FF0FCDF1FF0F581C00002CFF0B4028FF0B401CFF0B4020FF0B4008B500F0B9F8C021034A090213680B43136000F080
:4018C000B5F808BD00010B4010B5802400F0AAF80749084B0A68E4011A4022430A600A6813408022120213430B6000F09FF810BD00010B40FF3FFFFF70B5051C00F092F834
:401900000E4B041C1A68C0231B02134011D10C480C490540281C0E680B4A3240104308600A68012B01D1FFF7C1FF201C00F07EF870BDFFF7C9FF0123E9E7C04600010B4054
:401940000404040010020B40FBFBFBFF042238B5224C2368134213D021490B6813420CD0204BDD6908681540A8430860D9699143D9611B69002B00D098470420FFF7BCFF70
:4019800080232268DB001A4215D015490A681A420DD0144AD56908682B4098430860D169114B0B40D3615369002B00D098478020C000FFF7A1FF80232268DB021A420CD038
:4019C000074A12681A4204D0064B9B69002B00D098478020C002FFF78FFF38BD10020B40E800002010050020FFFBFFFF024B1868012318407047C04604000440024B186835
:401A0000C006C00F7047C04604020440000000000230800804D0C0460138FDD1C046C046C0467047EFF3108072B6704780F310887047C046C046C046002243088B4274D300
:401A400003098B425FD3030A8B4244D3030B8B4228D3030C8B420DD3FF22090212BA030C8B4202D31212090265D0030B8B4219D300E0090AC30B8B4201D3CB03C01A524167
:401A8000830B8B4201D38B03C01A5241430B8B4201D34B03C01A5241030B8B4201D30B03C01A5241C30A8B4201D3CB02C01A5241830A8B4201D38B02C01A5241430A8B423E
:401AC00001D34B02C01A5241030A8B4201D30B02C01A5241CDD2C3098B4201D3CB01C01A524183098B4201D38B01C01A524143098B4201D34B01C01A524103098B4201D372
:401B00000B01C01A5241C3088B4201D3CB00C01A524183088B4201D38B00C01A524143088B4201D34B00C01A5241411A00D20146524110467047FFE701B5002000F00CF8FC
:401B400002BDC0460029F7D003B5FFF775FF0EBC4243891A1847C0467047C046014B18687047C0464C0100200E4B70B500251E1C0D4CE41AA410A54204D0AB00F35898470C
:401B80000135F8E700F080F8084B00251E1C084CE41AA410A54204D0AB00F35898470135F8E770BD941C0000941C0000941C0000A01C0000002310B5934203D0CC5CC45482
:401BC0000133F9E710BD031C8218934202D019700133FAE77047002330B59A420DD0013AC45CCD5CAC4202D1934202D1251C631B03E00133002CF3D1F8E7181C30BD0000DB
:401C00000000000055504400534452495645000001000F4002320F400A330F400E410F40723F5B045F016FA675107702838087028B208D108F06E2C0E650504057805988E5
:401C400064106702830184108B808C408D88D4E0D6C0D880E6600000030405060708090A0B0C0E0F101112131415161718191B1C1D1E1F2021222325262728292A2B2E2FDA
:401C80003031323334354300F8B5C046F8BC08BC9E4670472D0200003D130000AD130000F8B5C046F8BC08BC9E46704705020000C01C0000D000002080000000E0030000B1
:401CC00000000000010000000000E02EC05D00001800000000366E01040404000000000000000000000000000000000000000000000000000000000000000000861C00004D
:401D0000000000000000000000000000000000000000000000000000000000000000000000000000000000000000000000000000000000000000000000000000EC00002097
:401D40000000000000000000000000000000000000000000000000000000000000000000000000000000000000000000000000000000000000000000000000000000000063
:401D8000FC0F0020911D0000511300005113000008B5024B83F3088801F06CFCFC0F0020F8B572B6002506236B436F4C0135E7181E5D7B787A79B87839791B023343000453
:401DC00012020A43191C031CF8780B43000618430021FFF7F8FE032DE5D1211C802212316248FFF7E7FE0022141C6149FF250B1C1433D7583C313E1C081C6300AE433D40FC
:401E000001336419CB186100013141188B4206D0581E00781D78801905700233F6E70432282AE2D1534BD8321A80534BFF3A1A70524A534B53491A60534A544B3C241A6098
:401E4000534A544B54481A609022544B30251A609923534A1B041360524A80261360524AF6021160514A02211360514A514B1A608022514B92021A60504A514B1A60514AD2
:401E800013780B4313700378A343283C23430370162013784C4C03431370D1224B4B1E301A604B4A4B4B1A60D0224B4B1A604B4B2E321A604A4A4B4B1A6080234A4A136050
:401EC0004A4A10604A484B4A106004204A4A10604A4A7E3010604A484A4A10604A4A281C13600E22494B1960494B1D60494B1A60236833432360FFF747FC474A474B4849BF
:401F00001A601122474B09201A60474B0F321D60464B1A60464B103A1A60464B03321A608022454B12061A60444A454B26601A60444A454B1A60454A454B1A60454A464B9C
:401F40001A60464A464B1A60464A474B1A60474A474B1A60FFF7DAFB0920FFF7DFFB0022444B1A60F8BDC046C04C000080300F40404D000000600F4002600F400000FFFF73
:401F8000000001400000278D303333030400014030EE00000C00014001700F401000014000500F4010500F4018500F4020500F400400990030500F4034500F4000000C3093
:401FC00038500F4000700F4000010B400000044002E0D800080004401800044000010440B16D1B0008010440180104400002044001202500080204401802044000030440B2
:40200000B19D000008030440180304400004044008040440180404400600008004010B404D190000080202400C02024014020240180202403002024008010B40FE000080DA
:4020400000000240FE0000C04000024005000080800002402200008004000240ED020080440002407F0200C0840002402C011F80000102400C020B4010B5064C2378002B6E
:4020800007D1054B002B02D0044800E000BF0123237010BD5002002000000000BC4C000008B5084B002B03D00748084900E000BF07480368002B00D108BD064B002BFBD003
:4020C0009847F9E700000000BC4C000054020020D000002000000000E32210B5174C0021201C9200FFF76FFD154B164A1C60C7239B00E250144A0433E250144B144A23603B
:40210000144B6360144BA360144BE360144B2361CE239B00E250134A043BE250124A0833E250124A0433E2504C33E218683BE250E72264339200E25010BDC0466C02002069
:40214000FC0F0020A086010000127A003D46000095380000154500004D4500003D4500003145000089380000E54700008947000008B5E32302489B00C018FEF7A0FA08BDBC
:402180006C02002008B562B601F00CFBFFF7A4FF00F042F9002008BD10B50022041C231A9BB28B4209D22378D318DBB2934201D20133DBB201341A1CF1E7101C10BD00002A
:4021C00008B5831F082B15D006DC062B16D013DC052B15D116491BE00A2B07D008DB102B02D0282B13D00BE0124911E012490FE012490DE012490BE0124909E0124907E049
:40220000124B1349584302F0A1FC011C00E01149114802F09BFC031C410988B24901591AC9B201F07DFA01F0D9FA01F01DFB08BD4F230100FC970000A1CD00007BDA0000E4
:402240000CE90000B1F90000E60C0100808D5B00405D0D00604A000000B0710B08B501F0CDFA01F0F5FA0028FBD108BD08B5C9B201F0DCFA01F0ECFA0028FBD108BDF7B59B
:40228000071C051C0C1C0091019201F09FFA002806D101F03DFA019B9842F6D0012012E001F08EFA061C002C08D1381C0099FFF773FF301A461EB041C00104E0013C287080
:4022C000A4B20135E1E7FEBD10B50122FFF7D7FF041CFA20800002F06DFA002C04D04E20FFF7BCFFFF2003E04120FFF7B7FF201C10BD000038B5051CC8200D4B80001C687F
:4023000002F058FA4320FFF7A9FF1834C82002F051FA201C291CFFF7A9FF291C201CFFF73BFFFFF79BFF01F093FA0028FBD138BDFC0F0020204B10B51B6808283AD8CD2112
:40234000CE22890092005C589B5802F0EBFB05090E13181D22272C009847C323184028E098473C239843043B21E098473C239843083B1CE098473C2398430C3B17E09847EE
:402380003C239843103B12E098473C239843143B0DE098473C239843183B08E098473C2398431C3B03E098473C239843203B1843C0B2A04710BDC046FC0F0020054B1B68B1
:4023C00018330022013880B21A7001339042F8D17047C046FC0F0020802008B54000FFF7EDFF08BDF7B50B4B0C1C1F68061C7B180A210193302502F0A9FB019B28431876DB
:402400000A21301CFFF79EFB18343F190D437D70F7BDC046FC0F0020D54BF0B51B688FB01E1C01931933FF330493183601F050FA01F028FC01F062FC02F016F9DB21002458
:40244000019A890052185471CA4ACB4B603212781C702E2009AB5C70DC709A70FFF7B0FE01F01EFACE25C24FAD00430618D5C82002F08AF9CD223B689200012C07D09C5806
:402480005B599847FD231840A0470124E8E79C585B59984702231843C0B2A0470024DFE7CD223B6892009C585B59984702231843C0B2A047CD223B6892009C585B599847BD
:4024C000FE231840A047FEF731F8FEF73BF8041EF9D1CD22A64B92001B689D5804329B58984701231843C0B2A8470020A34B1B1915341875BD2CF8D1DB2292009446019BA9
:402500000290634403939876002209AB1A70029B013BDBB2072B05D9FEF754FB002810D000242AE01520029B5843944B18180023934A01999A188A5CC2540133152BF7D16E
:40254000EAE7CD228A4B92001B689C5804329B58984701231843C0B2A047FA20800002F029F96BE701330B2B0FD0824AF15C61329A5C9142F6D00134A4B2201C0021FEF77C
:402580001DFC002847D00023EFE7DB22019B92009C18E279A079237A120202431B0413431A1C0021637A77481B061343019A1218180A13705070180C1B0E9070D370081CC4
:4025C0001022A174E174FEF7BBFD0123A376727933791343012B01D12033A376E37DA17D207E1B020B4300041A1C031C607E13430006A57E184310388021AB0600D54900AE
:4026000002F0A4FAB4239B00984215D980235B421D43A57610E0DB22019B92009B1809A998760B78002B07D1524B6D331A78032313400422D31A0B7009AB1878FFF77AFE79
:4026400000230293CD224A4B92001B689C5804329B58984701231843C0B2A0470024002701F056F8051E4DD001F018FB051E1DD101F052F901F066FA002810D0281C01F08C
:4026800067FA00280DD1013001F062FA00280AD1023001F05DFA002806D0032404E0041C02E0062400E0052401F028FB324D2B78A3421FD009AB052C06D0062C02D0032C82
:4026C00010D108E02C701FE71A78012A01D9013A07E0042205E01A78072A01D8013200E001221A7009AB1878FFF724FE32202C7002F04AF8244B9F4202D9FDF78FFFAEE78F
:402700000137ADE7CD271A4CBF002368DA590592CE2292009B58984701231843C0B2059B984707A82A1C0421057045708570C5700571FFF7A4FD051CC820800002F03AF873
:4027400000F0E6FF0028FBD0642002F033F8CE2223689200DF599B589847FE231840B847002D27D0029FAB0710D502976AE7C046FC0F0020D400002002070020080600209F
:40278000720300007A030000A0F0190009AB9A78282A03D059784A424A415A7009AB5A782E20002A02D098780630C0B2FFF708FD029FDAE706AB1A790323111C31390729CB
:4027C00012D8B44909A86D310F7834213B40C91A8A4201D107781DE0017830318A4215D10427FB1ADFB215E0AA496D310F783B407427FB1A029F9A42B7D106AB5B79503BA5
:40280000032B00D9A6E2302306AA137107AB1F780F231F40029BBB4215D0082B09D8181C152250439C4B9D491818019B5918FFF7C1F91522131C7B4397499848C918019BFC
:402840001818FFF7B7F9DB22019B92009A18917ECB078AD507AB5B78532B00D18CE004200D1C8543281C9576222B00D17FE002D8212B07D080E0502B00D198E0572B00D1D0
:4028800095E079E0CB0602D5B4256D0200E0844DDB22019B92009A185379032B07D10423DB221843019B92009B1898767CE0002B0CD1D47D937D24021C43137E1B041C4333
:4028C000537E1B062343AB42E9D153E080220292022B01D1FE330293DB22019B92009C18002363714B06DAD44120FFF7B7FCFFF773FD1023A57E2B405D425D412D01DB223D
:40290000019B92009818C37D817D047E1B020B4324041A1C231C447E134324061C43641B0ED080235B009C4200D91C1CA2B20120291CFEF705FC002801D02D19DFE701242C
:40294000321C029BFF21013B9BB211700132002BF8D1002C09D0DB2233707370019B92009A18937EFB390B4393760298EFE16BB2002B94DA8023AEE7CD22236892009C58BF
:4029800004329B589847FE231840A04707AB5A78FB23111C4E390B40012B08D93F2A03D109AB9B78282B02D14E2000F05BFE4120FFF754FC07A94B78502B00D1B2E00AD846
:4029C0004E2B12D070D83F2B00D0CEE609AB9B7801203370BBE1532B00D18BE1572B00D1A0E0522B00D0C0E69CE0DB22019B92009A184023917E907D0B409C46D37D1B022C
:402A00000343107E1C1C0004031C507E2343000618438B0601D4802101E0802149001D4A0C0A0023D55CF55401330C2BFAD163460C32002B09D1051C7F339D432B1CB568AD
:402A40009D4202D1B379A3421AD03378012BE8D16346B471F171002B02D07D21114BC018DB22019B92009B189B7E9B0601D58130FF3002F06BF8030AF070000CB37030713A
:402A800001233372523373720F3BB3722E33F3720C205CE1D40000200806002072030000106801002DB40000301C0C21FFF70CFC002800D059E63379B2783178F0781202AB
:402AC00001334B4311180A1C5A43B379F1791B025B18DB215343019A89005218917EC80600D41033890601D5813BFF3BD07D957D117E0002284309040143081C517E0906E5
:402B000001438B4201D0032309E001235371F179B3790B43012B01D000F098FD0133537100F094FDDB200025019A80004C8812185571AC4201D100F090FD927E510635D431
:402B4000032C03D8013CE401803507E08025910600D56D00043C6C438134FF34D20600D41034522B09D10020211C2A1CFEF7E8FA002801D100F071FDBAE0301C291CFFF7FE
:402B8000A3FB002800D0F0E500F08AFE0123184201D000F062FD181C211C2A1CFEF7D0FA002801D100F059FD00F050FD522B08D0301C8021FFF788FB002800D0D5E500F044
:402BC0004CFD8020FFF7FAFB022C1AD9DB22019B92009D18EB7DA97D287E1B020B4300041A1C031C687E1343000618437C307D2101F0ACFF83B20293B4235B009C4213D1C7
:402C000056E0631EB94A9BB2DB016E32D21809ABDB780733DBB2515D072900D1191C71550135802DF7D1D1E76A23FF339C4244D1687D2B7D000218430021FEF7BFF80021C2
:402C40000B1C725CC8B2141C413C192C02D91134092C02D8F2540133DBB2072901D00A2806D1834204D82022F2540133DBB2F8E701310B29E5D1331C721E0A331978013BE5
:402C800099719342FAD1331C321C10338032934203D0002119700133F9E7954A02994623914200D8043B72223370FF32F31C1A806A461289731C1A8019E0B82380255B004C
:402CC0009C4215D97D22111C61438A4B0020C918FEF736FA00237C2801D90134A3B2321C7D32190A5370331C7F33117018708025281C2CE0DB22019B92009A18102100235F
:402D000053713170907E90337F2800D80B1C20213370907E084201D00B4333700421937E0B4205D033780B433370937E8B43937600F0B6FDC30703D50822337813433370CA
:402D4000FF2373701F3BB37000230420F370FFF7D1FA0AE54120FFF781FA029B082B09D8181C15225043644B64491818019B5918FEF720FF07AD6878C0383F2801D900F08C
:402D80006BFC01F0D9FE40006B007E006904690469046904690469046904690469046904690469046904690469046904690469046904690469046904690482009800A00036
:402DC000A600BD00D800FA000A011C012901490149013C023C023C023C025802650250016401500360031E031E031E031E031E031E031E031E031E036904690469046904B6
:402E00007103CF031E03341C371CFFF7E5FA68880C34FC37451C0021ADB2FDF7CFFF002812D0BC4202D1337823700DE00023F25CE25401330B2BFAD1DB23019A9B00D35C68
:402E4000281CE3720C34E5E7321C331CF132197B197001339342FAD1F12000E3AA78F92A01D900F0F9FB09ABC8209A70002280005A7001F09FFC4320FFF7F0F90F2302935E
:402E80008CE4AA7809ABDA7057E3D122019B920099180023CA5CF2540133102BFAD1019B164A98180023C15CF21801331174152BF9D12520D3E2DB22019B92009B189B7E03
:402EC00001203370CBE26888FDF768FE061C0420C5E2301C0421FFF7F7F90F27002800D043E4301C0A96FDF7A9FBAFE3D40000208F020000D34BFFFF080600207203000024
:402F00000A98FDF79BFBC820800001F053FC4320FFF7A4F9C820800001F04CFC802104988900FFF739F98021041C89000498FFF79DF9201C14E00A9D281CFDF77FFB80219C
:402F4000049889000122FFF79AF9041CFA20800001F030FC002C06D0281CFDF76FFB4E20FFF77CF97DE24120FFF778F9201CFDF719FB002800D06FE3DFE2AB78002B00D197
:402F8000DBE20023A878834200D352E1C84A2132D25CF2540133DBB2F4E7FDF73FFBC820800001F007FC4320FFF758F9AB78002B01D1FFF743FA0F230293FFF7A8FAAA78C9
:402FC000082A00D948E3152301215343B94AD3181A7D8A431A75B0E2A978082900D93BE315225143B34B59180B7DDB0704D40E20FFF7E4F90E2032E2019BAF481818FEF778
:40300000D9FDDB22019B92009B181A7D5B7D1B021343AB701B0AEB7007AB58880021FDF7CDFE071C2CE00BA80B21FFF74DF90F27002801D0FFF799FBEB78002B00D17CE22D
:403040001022AB78524213436B70E870A8706C88201C0021FDF7B2FE002800D1DEE100230BAA9A5C002A00D0A6E101330B2BF7D16B78EF2B00D9ABE1E322012707AB5A708D
:40308000DB23019A9B00D35CF37207AB5B78E32B0AD1131CDB2292009B181A7D5B7D0E241B021343B381A3E00C24E52B00D09FE0DB22019B92009D18EA7DA87D2B7E1202E6
:4030C00002431B0413431A1C6B7E1B061343F360AB786A781B02134333822B79EA781B0213437382321C331C323214332021197001339342FAD1EB7DA97D2C7E1B020B4309
:4031000024041A1C231C6C7E134324061C43DB23019A9B00D25C18231A4201D1DB187377331C351C13331D350293002C0BD0201C0A21FEF707FD302319432970201C0A219E
:4031400001F004FD041C029B013D9D42EDD12D253A22331DDD77F31DDD7725331A70DA70039B64219C78554B6408E418201C01F0EDFC1F21C0B2FFF735F9201C6421FEF702
:40318000E1FC1F24C8B22121FFF72CF9039A039B90785B7800021843C005000F2421FFF721F9039A039B90785B780002184320402721FFF717F9039B2A211879C008FFF723
:4031C00011F9039A039B1079DB78000218434005800E291CFFF706F9039A039B1079DB7800021843204040003021FFF7FBF81334002F02D13220FFF7E1F8A0B22FE168883A
:403200000121FDF7DBFD002806D00023581CF25C80B2031C002AF9D1FF2804D80022431C325498B2F8E7802368785B00E6380341181C80B213E10024201C0021FDF7BEFD7B
:40324000002802D00134A4B2F6E73480023006E1AB78013B132B01D91423AB70DB2206AB9F79019B92009818C37A817A1B020B431A1C0024037B1B041343427B12061A4390
:4032800002920020011CFDF799FD002868D0DB23019A9B00D35CDB0662D533782E2B5FD173782E2B5CD1002F0AD13F23335557E0D40100200806002072030000BC070000AD
:4032C000DB22019B92009D18EB7AA97A1B020B431A1C2B7BCF491B0413436A7B013F12061A430592EA79A8792B7A120202431B0413431A1C6B7A00251B061343019AFFB267
:403300005218190A13705170190C1B0E9170D370281C0021FDF752FD0028B2D0DB22019B92009B18DA79987912020243111C1A7A5B7A12040A431B061343059A9A420CD175
:403340002F230C3CE4B2321913700023F05CD118013348700B2BF9D193E70135ADB2D7E7AC4A019B9B186A46127A1A70029A120A5A70029A120C9A70029A120EDA70A3B292
:403380001A1CB05C111BC9B270548021013292B249008A42F5D15B42DBB2002B01D1337001330022F2540133DBB29342F9D10C2007AB9B78584352E0F15C914200D154E6BE
:4033C00029E068880021FDF7F9FC002800D143E1DB23019A9B00DB20D15C1022019B800011401C18002900D1A9E0E279A079237A120202431B0413431A1C637A85491B061A
:403400001343019A5218190A13705170190C1B0E9170D37006E10134A4B219E66B78EF2B00D919E1E3E5A878082807D97A4B6D331878032318400133181AC0B209AB187078
:40344000FEF778FF79E0EA7809AB9A180023A878D15CF1540133D9B28842F9D1A878FEF749FF0F27FFF781F90020011CFDF7A6FC002805D107AB9B78002B00D0B7E55CE04B
:40348000DB23019A9B00D35CDB06F3D533782E2BF0D173782E2BEDD1131CDB2292009D18EB7AA97A2C7B1B020B4324041A1C231C6C7B13432406EA79A8791C432B7A12028C
:4034C00002431B0413431A1C6B7A52491B061343019A5218190A13705170190C1B0ED370917007AB9B78002BC4D00025281C0021FDF764FC0028BDD0DB22019B92009F18EE
:40350000FA79BB7912021A433B7AA0B21B0413431A1C7B7A1B061343984200D1ACE50135ADB2E3E70021019B3A4A081C9B18197059709970D970FDF741FC0F2786E0E079D8
:40354000A37900021843237A344D1B040343181C637A1B060343019840191D0A037045701D0C1B0E8570C370A174E174337A412B2ED1737A542B53D1B37A522B50D1081C1B
:40358000FDF7DEFD0123A376727933791343012B01D12033A376E37DA17D207E1B020B4300041A1C031C607E13430006A57E184310388021AB0600D5490001F0C7FAB423CF
:4035C0009B0098422ED980235B421D43A57629E0582B25D1737A462B22D1B37A442B1FD1333BE27DA376A07D237E120202431B0413431A1C637E1B061343B4225202934236
:4036000010D982229202934201D8912309E0312307E0C04676030000D40000207A030000C123A37607AB5A780F231A40082A84D806335A430D4B0E499A18019B58180023F2
:40364000C15CD1540133152BFAD176E7C820800001F0B0F8432005E00F27C820800001F0A9F84520FEF7FAFDFFF77FF8080600207203000070B51049104B01394A1C15D034
:4036800000221E685C689D68A018AA4203D0B058A0500432F8E7021CDC68151AA54202D0002520C2F9E710330139E7E701F0E0FAFEF768FDFEE7C0460100000054510000E3
:4036C00008B500239A000D49032B01D80C4989580C4801338150302BF4D1FEF761FB0022094B1A60094B1A68002A00D11A6080220121D20513680B43136008BD51130000B8
:40370000801D000000000020C8000020C0000020024B1868C006C00F7047C04604030440054A090413685B0D5B051843F8235B031940084310607047000102407222074B33
:403740001A70074B523A1A70064B1A3A1A70064B41321A700022054B1A70704781000F4083000F4023000F4033000F4082000F4008B501F04BF82021074A13780B431370E1
:40378000064B10391A780A431A70054A13780B43137001F03FF808BD91000F4093000F4092000F4010B5054C2378002B03D1FFF7C5FF01232370FFF7DBFF10BDC506002022
:4037C000014B1878C0B2704741000F40024B18788006C00F7047C04663000F4008B501F015F80121044B1A780A431A701A788A431A7001F00FF808BD91000F40034B1B7897
:40380000002B01D0024B18707047C046C506002042000F40034B1B785B07FBD4024B18707047C04662000F4042000F4038B5074B1B78002B08D0041C4518AC4204D02078EC
:40384000FFF7E8FF0134F8E738BDC046C50600200420044B1B78DBB2034202D15B0803389843704762000F4008B500F0CFFF0121044B1A780A431A701A788A431A7000F0B7
:40388000C9FF08BD92000F40014B18707047C04672000F40014B1878C0B2704772000F40014B1878C0B2704760000F4010B5074C2378002B05D100F015F900F057F90123B8
:4038C000237000F045F800F055FB10BDC706002038B5FFF7EBFF041E17D100F0B9FA041E13D100F00BFA041E0FD100F08FFF051C00F0D4F9002805D000F066FF281C00F0B5
:4039000089FFF2E7281C00F085FF00F039F900F0B9F9201C38BD000070B50026341C0A4B6501ED18094BDB68E340DB0707D5281C00F054F8291C061C201C00F0B3F80134B3
:40394000032CECD1301C70BD745000000407002000220D4B70B51A610C4C013A0C4D0D4EDA60B5420FD00021227D23682970012A06D1E068884203D0D979628AFEF723F968
:403980002034013DEDE770BD04070020785000001A0700201707002013B5131C041C428868460280228A081C694601F047F86B461B8863806B469B7823716B46DB786371DB
:4039C0006B461B79A37113BD4A880B889B1A0022CA800279934200DDCB807047F0B50024051C037E85B00293C36986684768039301940C236343039AD3180093EB8A9C427D
:403A000016D23088398A009A01F044F8221C381C0099FFF7C1FF311C029A381C00F0CEF8311C0190381CFFF7CFFF0A360134E0E7019805B0F0BDF7B5CB8A8C6801930123AE
:403A40004D680A6901994E1E01962AD3011CAE796F88B4461940BE1B002901D13E1C6644E788B74213D98B4206D011780139C9B21170002907D1191C9843084301260029BC
:403A800000D1EE7916705B000A340132DAE70029F2D011780139C9B211700029F3D19843EFE7FEBD38B50E4C051C2318187D0B7E012B01D1FFF7BFFF1F22012163191875D9
:403AC0006B0915400A1C04339B00AA40E158002802D191430A1C00E00A43E25038BDC04604070020F8B5144D00217822281CFEF76AF8124B281C2B809823DB006B80022312
:403B00000F4C1C30211D3622AB76261CFEF752F8231CA4364433B3420DD0DD89201C2A1C1968013A04D3077801304F720A31F8E764192033EFE7F8BD04070020B4D5FFFF31
:403B400038500000014B18697047C04604070020021C0020022A05D801239340181C024B1B6918407047C046040700200023024A9380024A1360704704070020F00600204C
:403B8000F8B50C4C0C4EB44212D02768658A013D6B1C0BD00C220A236A43A1696B438A186168C85A398A00F069FFF0E7203CEAE7F8BDC046B850000058500000F0B50B88A1
:403BC0004C88A34205D24679E51AB5421DD8002603E000261D1B0E7201360779BD420ED8D2B2062A21D00A7924021443FF2254431B02E3181A0A1B0C4B800A7115E0407954
:403C0000854212D2002EEBD00FE00C7A007AA04202D901340C7208E0D2B20020062A02D14B80087201E00871FAE70020F0BDC9B2062901D0002303710388438000230372BD
:403C4000704700000A2208B5044B514340011B189A685018197EFFF7EAFF08BD7450000038B5041C064A4301D318DB8A5D1E002B05D0201C291CFFF7E5FF2B1CF6E738BD04
:403C80007450000008B50220FFF7EAFF0120FFF7E7FF0020FFF7E4FF08BD0000024B9868802318407047C0460407002010B58024094A640293681C401123002C09D1103B99
:403CC000022806D8D268C2401A4202D000F0CEFA231C181C10BDC04604070020064B10B59C6880235B021C401120002C02D100F049FA201C10BDC046040700200C4B10B5FA
:403D00009C68802311201C4011D1201CFFF7CEFF002809D1074B022C02D001221A7000E01870FFF7DBFF02E00134032CEDD110BD04070020F406002010B5114C63780133EE
:403D4000DBB263706078C0B2FFF7B0FF6378002805D1022B00D12070FFF7C0FF0FE0094A0006022B05D19168074B0B401843906005E093681B021B0A18439060DDE710BDAE
:403D8000F4060020040700207FFFFF008021084A0138136809065B005B08136013681B0C1B041843106013680B4313607047C046000002408021084A0138136809065B0082
:403DC0005B08136013681B0C1B041843106013680B4313607047C04640000240F8B50A4C0A4E231C0025163B1F6823789D4206D21C206843381800F009FA0135F5E720346D
:403E0000B442EED1F8BDC0468A500000EA50000001228A40111C02030139121AC0238A4205D3FF22504388429B415B429B01D8B27047000010B5054B4001181843680C1CC5
:403E4000D87A0988FFF7E4FF207310BD74500000FA23F0B58DB005AC9B002380C833638096231B01A38055230025E373324B3348997E00F06BFE40232F1C31494008A081B2
:403E80000868304A98439570086002922E4A6B019B185E680C233380A0892C4900F056FE5521F072281C00F045FA331C201C0A330B362361666100F053FD234B01900393A7
:403EC000234B984200D906270135032DDED101230025029AA3739370039A6B01D3185E68281C331C0A33236101336361019B311CA360F389E380331C1033A361FFF79AFF6B
:403F00005521281C00F016FA0743201C00F05CFD311C3080281CFFF78DFF337B002B04D1281C552100F006FA07430135032DD3D1381C0DB0F0BDC0460407002080BB00005F
:403F400034020020F406002074500000DC050000870D010010B50024054B6201D318201C59680134FFF766FF032CF5D110BDC046745000000F210A4810B50368094C8B4322
:403F80001A1C23780B401343F022934322788A4313430360FFF7DEFF00F014F8002010BD00FF084062F1FF0FC023054A10B514689C43231C0343081C1360FFF7FBFE10BDF9
:403FC0003402002008B5FFF709FF094A094B1A60094A0A4B11680B40C021C9000B431360074B084A1B681343074A136008BDC046000200010800084010000140FFF0FFFF1B
:40400000340200202008E8810400084038B5041C00F0FCFB09490A4B0D681D40094B1A78A418A37A084C2468A218527A120413432B430B6000F0EEFB38BDC0460800084052
:4040400000FF80FF285100007C07002008B5094B094A1B785B01D3185B68D97A187B074B1B78012B02D1FFF79FFF02E0081CFFF7A1FE08BDF506002074500000F6060020EC
:40408000012302889340024A013B1B045360704734020020F7B500F0B9FB1C4C1C4B22681C4E134333601C4B071C987EFFF76EFE80211A4A09061368194D5B005B081360F4
:4040C000136857200B4313602B68019300F094FB144B2B60144B154A1268120702D4013B002BF8D1019B0F202B602268104B13433360FDF713FBE72000F07EFB62680D4B6E
:40410000381C1A6000F086FBF7BDC046340200202008E88104000840040700204000024008000840F0060040C1030000100008402018E8810C00084008B5044A044B9168BC
:404140000B439360FFF7A6FF08BDC0460407002080000100F8B5041C077E857E00F056FB0F22BA40266807213368A94093430422BA406468134322688A432260336000F07D
:4041800049FBF8BD70B5134E134C3378134D5B01E318586800232B70327829780A334B435201A2189268D3180D4A1360FFF72EFF1C23327828785201584313591818094BE5
:4041C0001860FFF7C7FF084800F0CAFAFFF7B4FF70BDC046F506002074500000F70600207C070020800700207948000008B51C235943044B4201D058034B40181860FFF73E
:40420000A9FF08BD74500000800700200F2238B50168857E041C007E0B68824093430B6000F0F4FA0722AA4061680B6893430622AA4013430B6000F0EDFA0122607EA16851
:4042400082400B6893430B6038BD000010B5054C2378012B05D1044B1868FFF7D7FF0023237010BDF80600208007002070B5041C0D4E4301F3185D68FFF7E8FF0B4BE4B2C0
:404280001C701A7852019159094A116019787F23084A90689843031C281C0B439360FFF7EFFEFFF7D3FE70BD74500000F50600208007002004070020114A38B54301D218E5
:4042C0000A23104CC9B22170217855684B439268D3180D4A1360FFF7C9FF281CFFF796FE1C232078094A5843136818181060FFF731FF0122064B07481A7000F031FA38BDA7
:4043000074500000F70600207C07002080070020F806002021480000044A054B11680B40802189000B4313607047C04608000840FFFCFFFCF0B50125654A4301D3185C680E
:404340002B1C87B00290208805918340181C01384843642100F0FAFB6B461A7A5D4B00905D481A7000F0FCF900235C4A019513700393029B5648594A5B01C31811785D7E48
:40438000061CA94272D280255249A5720B7808265B01C318087811785B68C0B2C9B20493FFF78AFFFFF7B8FFFFF7C6FE4C4B4D4A127A52B2002A02DA013B002BF7D14A4BAF
:4043C0001B681F88009B9F4202D2A37AAB43A372A37A6D082B43A3720498013EFFF716FE002EE1D13B4B1A783C4B520118781C235843374BD35818183C4B1860FFF706FF16
:404400003B4B3C4A1E703C4B0A201A60049B64211D880123AB401D1C013D684300F096FB009B0130834203D31A1A0623974208D3009BC018A84200D9281C0623B842BF4127
:404440003B406946A27A01980979904200D2111CC9B20191244909684A72039A1A4303921E4A13780133DBB2137082E7019B01335B08A372002313701B4B1F68174B1A7865
:40448000AA421DD21F78029BA07A5A010A235F43B2189368DF197B7A834209D3181A059BC0B258436421633000F050FB787201E000237B72094A13780133DBB21370DDE763
:4044C000094A0398176000221A7007B0F0BDC04674500000F506002021480000F706002067660000040700207C07002080070020F806002000020001080008408021044A3A
:4045000008B5136809060B43136000F02DF808BD0000074010B5054C2378002B03D100F049F801232370FFF7E9FF10BDFA060020014B18687047C04640030740024B18680F
:404540000F2318407047C04608030740044B1A680F231340082BF9D0024B18607047C0460802074040020740F021074B09051A680A43F0211A601A6809060A431A60034B83
:404580001A88034B1A60704700000140FC060020880F07400549064B0A6880061340C02212051040184308607047C04620000740FFFFFFF30721002008B5104A104B1A605B
:4045C000104A114B1A60114B114A1360114A1160114A1360114B1860114B1860114B1860114B1860114B1860114B1860114B18601A68114B1A80FFF7CDFF08BD0F000001EC
:404600000000074001000080200007400701008000030740040307400002074004020740880E0740C80E0740480F0740080F0740C80F0740880F0740FC060020034A1368B9
:404640001B0C1B04184310607047C046800002408021044A08B5136809060B43136000F05DF808BD0000064010B5054C2378002B03D100F007F801232370FFF7E9FF10BD62
:40468000FE060020134A144B14491A600023144A1448136001220A60072101601248016012490B6012490A601249134A1160134A1360134A1360134A1360134A1360134AD1
:4046C0001360134A1360134A13601268124B1A807047C0460B000002000006404800064040000640000306400403064010030640440006400700008000020640040206407E
:40470000880E0640C80E0640480F0640080F0640C80F0640880F064000070020F021054A13688B4360390B431360034B1A88034B1A6070471000014000070020880F06409F
:4047400010B5041C00F062F8044AA40713689B009B082343136000F05DF810BD0CE400E010B58024054B24021C60054BD8670320FFF7E6FF034B1C6010BDC04680E100E0D7
:404780000000002000E100E010B5041C8022074B1202944205D9586800F02EF8044BE418F4E79868604300F027F810BD3C0200200080FFFF08B5034B1B7B584300F01CF8E0
:4047C00008BDC0463C02002008B500F01FF80421034A13688B43136030BF00F01BF808BD10ED00E0024B1868C006C00F7047C04604020440000000000230800804D0C0460D
:404800000138FDD1C046C046C0467047EFF3108072B6704780F310887047C046C046C04601220C4B1A600C4B19680C4B1A680C4B1B785B0099520B4B0B4A1B6813430B4AD5
:4048400013600B4BDA8899680132DA80094A0A409A607047140008400C0008407C07002028510000340200202008E88104000840040700207FFFFEFFF8B51C232A4D2B4CB2
:404880002A782B4F207852015843D35901221818284B294E1A60294B31681A68284B1B785B005A52274B284A1B681343274A1360FFF7ACFC2B785B01FB1858682B78227889
:4048C0005B01FB189B7D013B934217D923780133DBB223700A232A78217852014B43BA189268D3183360FFF791FB28782178C0B2C9B2FFF77BFCFFF7CDFB13E00023237032
:40490000134B144A98681449127801409960012A02D1FFF711FA05E0104A02409A60DA880132DA80F8BDC046F5060020F706002074500000140008407C0700200C00084027
:4049400028510000340200202008E8810400084004070020F4060020FFFFFEFF7FFFFEFF70B5041CFA26036980881D78E37BB60058431349704300F0E9F875436188684387
:4049800000F0E4F8051C2088311C684300F0DEF8A3890C49584300F0D9F8013063691022082809D80822042806D80422022803D801D1187001E001221A70281C70BDC046C9
:4049C000F049020000E1F50538B5041C63698089197800F0BBF8051C60880304181A23691978A388594300F0B1F8A37B1149DD40684300F0ABF8E3880A21584300F0A6F83A
:404A000000230D4AA16810258A425B410222D31A62325343984203D9013DEDB24008F9E74B236421584300F091F8A4692080281C38BDC046A0860100A761000010B5002455
:404A4000A34200D00C880088131C800080B2824200D2031C9AB2A24200D2231C9AB20B805308FF2B01D9FF2300E0DBB28B70CB70D308FF2B00D9FF230B7110BD8B08138024
:404A80000F2393720023C90851809080D0801081D3727047937A30B594885B00041B9080DBB2002C01DB937202E00133937264420F23957A1D40538895729C4203D2012BBB
:404AC00003D9013B00E0013353800F2D05D0002D03D053889D00AC4204D90023D0801081D3721DE0D488844201D9D08003E01489844200D21081D07A092802D80130D07260
:404B00000EE01089D488001B80B2834204D989088B4203D9013B00E0013353805388138030BD000002B4714649084900095C49008E4402BC7047C04603B4714649084000EA
:404B40004900095A49008E4403BC7047002243088B4274D303098B425FD3030A8B4244D3030B8B4228D3030C8B420DD3FF22090212BA030C8B4202D31212090265D0030BCE
:404B80008B4219D300E0090AC30B8B4201D3CB03C01A5241830B8B4201D38B03C01A5241430B8B4201D34B03C01A5241030B8B4201D30B03C01A5241C30A8B4201D3CB0266
:404BC000C01A5241830A8B4201D38B02C01A5241430A8B4201D34B02C01A5241030A8B4201D30B02C01A5241CDD2C3098B4201D3CB01C01A524183098B4201D38B01C01A78
:404C0000524143098B4201D34B01C01A524103098B4201D30B01C01A5241C3088B4201D3CB00C01A524183088B4201D38B00C01A524143088B4201D34B00C01A5241411A4E
:404C400000D20146524110467047FFE701B5002000F00CF802BDC0460029F7D003B5FFF775FF0EBC4243891A1847C0467047C0460E4B70B500251E1C0D4CE41AA410A54211
:404C800004D0AB00F35898470135F8E700F04EFA084B00251E1C084CE41AA410A54204D0AB00F35898470135F8E770BD385100003851000038510000445100000000000044
:404CC00000300F40800000310F40000300400F400004FF10000082080000F3000C03C37F00001C00E3040C04008041670018000000000F00F000043C00410018F300083CA0
:404D000000421C800F202C1FC0400080282000000004320504000100EC000CFFFFFF62A0F0410C000000000002110404040400000001000000000000400200103010001019
:404D4000101200000000000000000000000000000000000004000F4011300F403D310F406E320F4067330F4004400F4013410F4009420F4015430F4002600F40723F8172CD
:404D8000820F833808040E0212021D0126012E0130023204340137013A803E153F40580459045B045F0100A004020550071109020C080E4811801210144416011708180643
:404DC00019081B411D0A1E211F2022802410256026022C082E402F203240351036163D203E0A3F804404451A47404F805440561058115A045C106008620463016C206D5011
:404E00007408760B77088A048E04C0F3C278C4F5CA70CCE8CEF0D0F0D210D627D80EE4300040022004800620081309130A0C0E1510031214140A15011614170A18E01902A4
:404E40001B09202022C024E025132A082B042C132D102E043010310C32E03303340F35103A203E013F014034410645E046EC47B0482E49FF4AFF4BFF4EF04F44500C54019F
:404E8000580459045A045B045F0166C06A406B02841086AC8708880C8A718B0C8C148D808F13920394DC952C9622974399719B06A220A410A640A809A971AAD0AB0EB01FE9
:404EC000B130B30FB4E0B5C0B808B922BA20BB08BE04BF01C004C504C9FFCA07CBFFCC40CD20CEF0CF05D008D418D804D904DA04DB04DF01E040E1A8E240E32001200322A3
:404F000004800512071009080A800C200D080F8010041260140415201622170119241A801D101E401F2421192510275029202B042C202D402F043010311836043710388080
:404F400039203B043D103E204101441046404A204B044D2150405240541057C25A015C205D095E40600463026C026D0A6E10748076088105820283048422860887808A80BD
:404F80008C808D068E149004915092019680970899089B019F50A020A280A301A410A510A604AB01AD40AF04B051B320B408B520B640C0F7C27CC4FECA74CC66CE2ED0C1D3
:404FC000D220D6F1D80CE650EA0100018A108C01C0100210508056405A025B205E0266018080820186418E018F209E10C010D4E0D6C0D880E230E6C0010808800D106E0267
:4050000076087A01C008C203DC0301080E105E2066088A108D088E0896109E08AA10B080B110B508C008C204D604D801E009E202EA06EE0410011101202020000C0064009C
:4050400028280A031E6420040000A00000000C00640028280A031E6420040000A00000000C00640028280A031E6420040000A00000000000D450000020070020560700207F
:4050800000000000EE0600200100010001010000E0060020F0500000320700206007002000000000ED0600200100010001010000D40600200C510000440700206A07002048
:4050C00000000000EC0600200100010001010000C80600201000014008040440000404400404044000F00000080000000C0309000C00014008030440000304400403044039
:40510000000000F0800000001C07150004000140080104400001044004010440000000F0800000001C07150000000000F8B5C046F8BC08BC9E467047A120000071210000E6
:40514000C1360000F8B5C046F8BC08BC9E4670477920000068510000D0000020800100003805000000000000000000002801001200000080006801002801001A0004008087
:4051800000080200280100120004010080CE02002801001201040100809E05005001001201040100803E0B005001002401040100807E1600500100480104010080FE2C00E7
:4051C000010100000004010000000000065344524956452020415452000372025F07F807A9008D04038D4402A9078D0503A9708D0A03A9018D0B038509607D8A482053E4F1
:4052000088D0FA68AA8C8E07AD7D07EE8E0760A9938DE202A9078DE302A20220DA07954320DA0795443543C9FFF0F0CACA10EC3006E645D002E64620DA07A2018144B5453D
:40524000D543D0EDCA10F720D2074C9407A9038D0FD26CE202AD8E07CD7F07D0ABEE0A03D003EE0B03AD7D070D7E07D08E20D2076CE00220DA078DE00220DA078DE1022DEE
:40528000E002C9FFF0EDA9008D8E07F0825344726976652D41524D2D303220323031373034303520627920416C5370206261736564206F6E20426F62216B2026205261739C
:4052C0007465722C20432E502E552E000008C0010000FF0F010000000000C05D80BB000030000000006CDC02000000000000000000000000000000000000000000000000FB
:40530000000000000000000000000000000000000000000000000000000000000000000000000000000000000000000000000000000000000000000000000000000000006D
:40534000000000000000000000000000000000000000000000000000000000000000000000000000000000000000000000000000000000000000000000000000000000002D
:4053800000000000000000000000000000000000000000000000000000000000000000000000000000000000000000000000000000000000000000000000000000000000ED
:4053C00000000000000000000000000000000000000000000000000000000000000000000000000000000000000000000000000000000000000000000000000000000000AD
:407FC000C9911D00003A0000008035000000000000000000DEC00100ED0DDCBA000000000000000000000000000000000000000000000000000000000000000000000000EC
:0200000490303A
:0200000000FC02
:0200000490402A
:200000000000000000000000000000000000000000000000000000000000000000000000E0
:0200000490501A
:0C000000000204C81193110104E4128FE7
:0200000490600A
:0100000001FE
:00000001FF