:40000000FC0F002011000000651300006513000010B501F0AFF90000F7B572B680220021D2004F4801F0CBFD80220021D2004D4801F0C5FD0022FF2511004B4E14364A4BD1
:40004000D0584B000700284009184800013001333018AF43F31801900198834207D0581E0078C0190400187802332070F4E70432142AE4D13D493E4B802419603D493E4B66
:4000800024061960EE213D4B0902196099213C4B3C48196099233C491B040B603B4910260C603B493B4D0B603B4908603C203B490B603B490B603B490B7883431A43D2B208
:4000C0000A701621384A243813780B431370D122364B1B311A60364A364B1A605022364B1A60364B2E321A60354A364B1A608022354B92011E60354B1A60D822344B120165
:400100001A600223334A1360334A1160334A136080222B68D20213432B6001F045FB2A682F4B304913402B602F4A304B09201A6020222F4B1A602F4B2F4A1E602F4B1C60A0
:4001400000242F4B2C601A602E4A2F4B1A6001F0EDFA092001F0F2FA2C4B1C60F7BDC04600300F4000400F40041C00000000FF3F0000014030333303040001400C0001400C
:400180001000014000004BB100500F4008500F4010500F4000010B4018500F4020500F4030500F4001700F4000700F400000044002E0D80008000440180004400001044002
:4001C000B06D1B0008010440000204400802044008030440000404400804044018040440FFFFFBFF6D1900000600008004010B40080202400C0202400200008008010B40D9
:400200000000024010000080400002400C020B4010B5064C2378002B07D1054B002B02D0044800E000BF0123237010BD4801002000000000F41B0000084B10B5002B03D012
:400240000749084800E000BF07480368002B00D110BD064B002BFBD09847F9E7000000004C010020F41B0000C800002000000000004710B50278437881781C02C0780B04B3
:40028000234313430006184310BD03784078000218437047084B10B51A6810231340074A00D113601368802B04D10548FFF7E1FFFFF7DEFF10BDC04600030B40C000002066
:4002C000C17F0000F0B5040089B06B4B0791627900791D68A379120202431B0413431A00E37900261B0613431A0A237262721A0C1B0EE3722B001C33039340230193039BE2
:400300002100A272009332005C4B26736673280000F022FF5A48FFF7B8FF07005948FFF7B4FF05905848FFF7A4FF049028003230FFF7ABFF029028003030FFF7A6FF0690FA
:4003400028003430FFF795FF029B390A1A0ACE2389B292B29B00914207D0EB58FC209847642001F001FA300084E0079A002A0ADD059A06998A4210D1049A82420DD1029AF3
:4003800097420AD16FE0059A06998A426BD1049A824268D1029A974265D2EB5800209847FA20400001F0E0F93848FFF762FF384BC6091B68F701BB424DDA00230293FF2E9A
:4003C0003ED862792079A379120202431B0413431A00E37928001B061343190A23726172190C1B0EE372802300220193224BA1721B6822731C33009362733B00210000F052
:40040000ABFECE2304909B00002810D001220299EB58521A0292DB20002A00D1E72098473000039901F0ACF880370136C7E7EB58FD2098479620400001F096F9049819E0C7
:40044000CE239B00EB58FE209847FA20400001F08BF901200EE0CE239B00FD20EB589847FA20400003E0FC20EB589847642001F07BF9002009B0F0BDFC0F0020C07F0000B3
:40048000D67F0000D47F0000D87F0000C17F0000D01C0000F0B58BB0FFF7FCFE00F008FF62B6CE25374BAD001C68FD2063599847012601F055F8002809D0C82001F054F948
:4004C000012EF2D1FF20635998470026F1E7CE239B00E358FD309847200000F05BF8200000F060F80028F7D1200000F09FFB002803D1642001F038F9F6E7CE239B00E358D4
:40050000FE2098471B22002103A801F058FBD62300269B00E3189B690393270000231C3700933A00330003A9200000F06BFC00281BD0210003222431134801F048FB0028FD
:4005400010D1257F1148213D6A426A41D5B27919062201F03CFB002804D1290003A8FFF7B1FE02E00136B6B2D7E7CE239B00E358FF2098478022064B1A6001F0E9F80020A6
:400580000BB0F0BDFC0F0020F81B0000FC1B0000C000002001235B428361C72300229B00C2547047CA2310B59B00C05800F000FB10BD10B50A00CA240100A4001D31FF3188
:4005C0000123005900F018FA10BD10B50A00CA240100A4001D31FF310123005900F072FA10BDD0239B0070B5C35805000E009847FF24002829D0CE239B00EC580433EB58DB
:400600009847FD231840A047002E19D01026A9692800FFF7DAFFC4B2002C04D0013EF6B2002EF4D1FEE7C7239B00EC541C33EE580433EB58984702231843C0B2B04704E071
:40064000C723012234009B00EA54200070BDC72310B59B00C35C0400002B05D001212000FFF7BFFF0028F9D110BD836970B505000E008B420FD0FFF7EAFF002431002800C5
:40068000FFF797FF013CC0B2E4B2002802D0002CF4D1FEE7AE6170BD064B10B51C68A3689847E36898470028FBD023699847C0B210BDC046FC0F0020F0B50F2300240600E0
:4006C0009C4620000131891A8C420DD067461519EB08FB1A0727F35C3D402B4101252B40A34064191843EFE7F0BD002383607047F8B500230500C360402014000143C8B279
:40070000FFF7CAFF200EFFF7C7FF2014C0B2FFF7C3FF2012C0B2FFF7BFFFE0B2FFF7BCFF9520FFF7B9FF7F270C4EFF20FFF7B4FF0300BB43DBB20400002B04D1FF20FFF745
:40074000ABFF200009E0013E002EEED10123FF20EB60FFF7A1FF01204042F8BD8813000070B505000B4C002237212800FFF7C0FF002229212800FFF7BBFF002804D18023C7
:400780009B006B60013003E0013C002CEBD1200070BDC04688130000002370B5C3600500402014000143C8B2FFF776FF200EFFF773FF2014C0B2FFF76FFF2012C0B2FFF765
:4007C0006BFFE0B2FFF768FF9520FFF765FF7F26094CFF20FFF760FF0300B343DBB2002B09D0013C002CF4D10123FF20EB60FFF753FF0120404270BD88130000F8B5002459
:400800000500C4607A20FFF747FF2000FFF744FF2000FFF741FF2000FFF73EFF2000FFF73BFF9520FFF738FF7F27144EFF20FFF733FF0300BB43DBB20400002B12D1FF2077
:40084000FFF72AFFFF20FFF727FFFF20FFF724FFFF20FFF721FF0123FF20EB60FFF71CFF200009E0013E002EE0D10123FF20EB60FFF712FF01204042F8BDC046881300005D
:40088000F8B5D12705000A24104BBF001E68F359322098472800FFF7B1FF002237212800FFF726FF80222921D2052800FFF720FF002806D12800FFF7A1FF012302206B60EA
:4008C00003E0013C002CE2D12000F8BDFC0F002073B500240500C4604820FFF7DDFE2000FFF7DAFE2000FFF7D7FE0120FFF7D4FEAA20FFF7D1FE8720FFF7CEFEFF20FFF77C
:40090000CBFE030612D46B4604261870FF20FFF7C3FE6B46013E1855002EF7D10123FF20EB60FFF7B9FE6B4618780AE0054B01349C42E3D10123FF20EB60FFF7ADFE0120A6
:40094000404276BD404B4C00194B70B51D68C8239B00E9580600174801F070F8002180B22B6898476B6898471024FF20013CFFF793FE002CF9D120006B69984722002100BE
:400980003000FFF7B5FE3000FFF7A2FF012803D13000FFF775FF04E0052803D13000FFF7DFFE04006B6901209847200070BDC046FC0F0020006CDC02002370B506000C001E
:4009C0001500C360FF20FFF767FEFE28FAD16519FF20AC4204D0FFF75FFE20700134F7E7FFF75AFEFF20FFF757FE0123FF20F360FFF752FE002070BDF7B5019383680500EE
:400A00000E000092002B25D0144B00201F687B699847009C009B019A9B189C4212D26A68112162432800FFF763FE00280CD18022310092002800FFF7BFFF80239B00F6182C
:400A40000134E7E7002400E0012401207B699847200001E001204042FEBDC046FC0F0020002370B50C001600C3600500FE20FFF713FEA619B44204D02078FFF70DFE0134C8
:400A8000F8E7FF20FFF708FEFF20FFF705FEFF20FFF702FE1F231840052806D00124FF20EC60FFF7F9FD20000AE0FF20FFF7F4FD0028FAD00123FF20EB60FFF7EDFD002066
:400AC00070BD0000F7B50193836805000E000092002B25D0144B00201F687B699847009C009B019A9B189C4212D26A68182162432800FFF7FDFD00280CD180223100920097
:400B00002800FFF7ADFF80239B00F6180134E7E7002400E0012401207B699847200001E001204042FEBDC046FC0F00207FB50022092105000024FFF72FFEA04235D1102219
:400B400069462800FFF738FFA0422ED17E227F216846FFF7B1FDA0420AD0012825D1686030223F216846FFF7A7FD441CA4021CE080239B006B603E2249216846FFF79CFD4F
:400B80002F22060031216846FFF796FD5022050053216846FFF790FD01231C0084400235F018AB4044435C43640A200004B070BD144B70B504001D68FFF7C6FEA060002887
:400BC00001D101241BE06B69002098472000FFF7ADFF80222060920020001021FFF788FD041EEED101206B699847C9239B00E958054800F023FF2B6880B22100984720002D
:400C000070BDC046FC0F0020006CDC02D2239B00C318002903D118895B68181A04E0187B023941435B68C81870470000F7B504000021FFF71AFD534BE65C534BE018E15CED
:400C4000437885781B020B432D041A002B00C57813432D061D43A9235B00E35C462B15D15423FF33E35C412B10D11433FF33E35C542B0BD15623FF33E35C312B06D126333A
:400C8000FF33E35C362B01D100250E2629002000FFF7EBFCD2239B00E118230028334D60FF33DA7998791202024317090F81187BDA7A000210435A790192002807D0424398
:400CC000D8781B791B020343D318DA1913E0587E84466246987E00021043DA7E120410431A7F12061043019A4243D8781B79D2191B020343D2182300521928334A60FF3363
:400D00009A7801270A732822FF32A05C5A787F42120202434A81DA781B7900201B0213435D19D2239B00E5501033E7500E2E27D801252B00B340154A13421BD1C02252014C
:400D400013421DD0D6239B00E61823002A33FF33D87F0133DA7F0133DB7F120202431B0413431A002D34FF34E37F77751B061343B36104E0D6239B00E418A06160752800B4
:400D8000FEBDC046DE020000E2020000504000000300F0B51D33FF3385B00093D6239B00C3185B7D0500002B02D08C00134E01E0134E4C00D2239B00EB185F892000390094
:400DC00000F0C2FE20000191390000F037FED2239B00EB58C1182800FFF747FC019A009B944663441900042203A800F0DFFE03983040864200D1002005B0F0BDFFFFFF0F86
:400E0000FFFF0000F0B58BB0039310AB1B780D00089303001D33FF3309936B7809781B020B4302921A00AB7806001B041343EA7812061A43D6239B00C15801928A4203D056
:400E4000C2500022C3181A71D6239B00F2181379002B0AD0D288039900928A421AD304D1012B02D1089B002B14D06B782878A9781B02034309041A000B00E97813430906E3
:400E800019433000FFF7C2FE002304900693009307932EE0D6239B00F3181A7D05929A6804921A6901921B7B06930023079304993000FFF7DAFB059B5C01099B1C1940232D
:400EC0009C462078002800D1A0E0E52818D1059B20340133DBB20593102BF2D1D2239B00F3181B7B069A934200D881E0049B01330493069B0133DBB2069300230593D6E702
:400F0000E77A0F2F2BD1089B002BE0D00D23013807405F43029B611CDF193A007B1D08780231107001329342F9D1220039000E320B3110780232187001339942F9D16246C1
:400F4000237FFB72A37F3B732378134201D000237B730F2322781340012BB8D10AE0079B002B09D0009B039A93424ED001339BB2009300230793AAE72E2805D16378202B7D
:400F800002D1103B1F42A2D108231F409FD1009B039A934227D108222100029800F006FE089A0823002A10D0029BDB5D202B02D00137082FF8D1029B1B782E2B01D02E23BB
:400FC00000E00023029AD3557B1C2100029A0831D7183800032200F0E9FD0023FB70039B0120009312E0009B01339BB200936EE701993000FFF7CCFE019001003000FFF763
:4010000005FE00230490069373E70220637D227D1B0213431904E37EA27E1B021343CB181A0A2B716A711A0C1B0EEB716B461B7BAA71AB73039B1B0AEB73627F277FA37F6B
:4010400012023A431B0413431A00E37F1B0613431A0A2B746A741A0C1B0EAA74EB74E37A6B75E37DA27D1B0213432B761B0A6B76637E227E1B021343AB751B0AEB75002873
:4010800010D0D6239B00F6186B461B883071F3806B461B7D3375049BB360019B33616B461B7E33730BB0F0BDF8B54B7B16000A7B1B0205000C001343B34214D94A79087963
:4010C000A379120202431B0413431A00E3791B0613430022190A23726172190C1B0EA172E37222736273627B237B12021A43217A637AA07AE77A96421AD01A0213000B432E
:4011000001040B43390619432800FFF741FE030A6372030CA372637B227B1B02134301339BB220722373000E1B0AE0726373DAE7D6229200AD181B026A7D0B4300040343C0
:4011400038060343501E824102485242024313401800F8BDFFFF0000F0B50C0089B01F000EAB029204CB00901B88059207934A7C087CA37C120202431B0413431A00E37C40
:401180001B0613439F4201D300208FE0D221009A89001D32FF320492009ADB1B52185589167B38006E433100069300F047FC4643BE1B29000190300000F040FC6B460700C9
:4011C0009A88454321000098FFF76EFF637A207AA17A1B02034309041A000B00E17A1343090619430098FFF711FD39180098751BFFF73BFA0026B3B20393079B9E423AD0F9
:40120000D222009B92009B185B899D4230D3029B012B12D0D222009B92009B181B7B01379F4211D3019B2100013301936B4600989A88FFF739FF002706E000210098FFF728
:40124000D0F90028E6D09FE7637A207AA17A1B02034309041A000B00E17A1343090619430098FFF7D3FC39180098FFF7FEF90025069B9E4203D1029B012B16D10EE0029B16
:40128000012B04D1059B049A9B5D535503E0049B059A5B5D935501350136ACE700210098FFF79FF9002800D06EE7039809B0F0BDDE2210B5184C92000021200000F07FFC92
:4012C000164B174A1C60C8239B00E250154A0433E250154B154A2360154B6360154BA360154BE360154B2361154B6361CF239B00E250144A043BE250134A0833E250134A08
:401300000433E2503433E218503BE250E2224C339200E25010BDC04664010020FC0F0020A086010000093D003515000055150000151400004D1400003D140000311400001B
:401340000D1A0000491500007115000069170000DE2310B502489B00C018FFF7C6F910BD6401002010B500F0F5FB03680C2B00D1FEE7FEE7F8B500250F49104B01394A1C51
:4013800014D000221F685C689E68A018B24203D0B858A0500432F8E70200DE68141AA64201D020C2FAE710330139E8E700F0D8FBFFF770F8FEE7C04601000000C01C00001B
:4013C000002370B50A480B4C0B4D9A002100032B00D8A95801338150302BF6D1FEF71CFE80220121D20513680B43136070BDC0460000002065130000000000008021044A1B
:4014000010B5136809060B43136000F02DF810BD0000074010B5054C2378002B03D100F045F801232370FFF7E9FF10BDEC040020014B18687047C04640030740024B186844
:401440000F2318407047C046080307400F2204490B681340082BFBD0024B18607047C0460802074040020740F021054A090513680B431360034B1A88034B1A607047C04616
:4014800000000140EE040020880F07400549064B0A6880061340C02212051040184308607047C04620000740FFFFFFF307210020104A114B10B51A60104A114B1A60114B28
:4014C000114A1360114A1160114A1360114B1860114B1860114B1860114B1860114B1860114B1860114B18601A68114B1A80FFF7CDFF10BD0F0000010000074001000080D9
:40150000200007400701008000030740040307400002074004020740880E0740C80E0740480F0740080F0740C80F0740880F0740EE040020034A13681B0C1B0403431360C3
:401540007047C04600000240014B18707047C04672000F40014B1878C0B2704772000F40024B1868012318407047C04604000440024B1868C006C00F7047C046040204409D
:40158000F0B50024ADB0089403900994FF2800D9ABE0A14200D1A8E080220CA800F006FB02222300210001940AAD90004059002802D00918034301920132222AF5D10029EC
:4015C00002D1002B00D093E0002702977F234D494D4C4E4E4E4A0A916B6025603260C046236806911B0F07920F2B04D022680023120F0A2A01D02368DBB20893089B0493AF
:40160000002B00D07BE000F011FA424A424B116805901960049B04920993089B002B16D13E4A03990A920A9A09040A433C490A922560354A3160C0462168090F0F2903D00D
:401640001168090F0A2901D01368DBB20893089D002D39D1002F37D0802229000CA800F0AEFA019B029A0AAF9B00DA51069B079A0A937F237B602760234B3260C0462268DF
:40168000120F0F2A03D01A68120F0A2A01D01D68EDB20895089B002B16D1224A03990A920A9A09040A4320490A922760164A3160C0462168090F0F2903D01168090F0A294A
:4016C00001D01368DBB20893099B002B09D1124A049912680A600993099B002B01D0099B0893059800F0A6F909E00423089306E0019B01279B00EA58E950029266E708985D
:401700002DB0F0BDB6D7000008000040040000400400008008010B40F0040020B6D8000005000080B6D9000006000080024B8000C318186819607047400000201F231840A0
:401740001E3B8340014A13607047C04600E100E0034A044913689BB20B4313607047C0460CED00E00400FA0570B5802504002D02064BAC4205D9586800F04EF9044BE418F9
:40178000F6E79868604300F047F970BDCC0000200080FFFF10B5034B1B7B584300F03CF910BDC046CC000020F0B5050087B000F03DF9EB1E049003932D2B5BD8304B1B78E7
:4017C0009D4204D82F4B1C782F4BE4B21EE02F4B1B789D4204D82E4B1C782E4BE4B215E02D4B1B789D4204D82C4B1C782C4BE4B20CE02C4B1B789D4204D82B4B1C782B4B2A
:40180000E4B203E02A4B1C782A4BE4B21B78EA1EDBB20193284B294F9A5C059302922F2A04D92A2D02D919263E6008E03F233E681E40029BB34205D2204B029A1A600520B0
:4018400000F0EAF81B4B1E4AED182B780520DBB213601C4B019A1C601B4B1A60FFF79AFF029BB34206D9059B039A05209B5C3B6000F0D2F8049800F0DDF807B0F0BDC04624
:40188000C0F1FF0FC1F1FF0FC2F1FF0FC3F1FF0FC4F1FF0FC5F1FF0FC6F1FF0FC7F1FF0FC8F1FF0FC9F1FF0FCAF1FF0FCBF1FF0FCCF1FF0FCDF1FF0F661C00002CFF0B4063
:4018C00028FF0B401CFF0B4020FF0B4010B500F0ADF8C021034A090213680B43136000F0A9F810BD00010B4010B5802400F09EF80749084B0A68E4011A4022430A600A68A9
:4019000013408022120213430B6000F093F810BD00010B40FF3FFFFF70B5050000F086F80E4B04001A68C0231B02134011D10C480C49054028000E680B4A32401043086053
:401940000A68012B01D1FFF7C1FF200000F072F870BDFFF7C9FF0123E9E7C04600010B400404040010020B40FBFBFBFF042270B5224C2368134213D021490B6813420CD0B3
:40198000204BDD6908681540A8430860D9699143D9611B69002B00D098470420FFF7BCFF80232268DB001A4215D015490A681A420DD0144AD56908682B4098430860D16995
:4019C000114B0B40D3615369002B00D098478020C000FFF7A1FF80232268DB021A420CD0074A12681A4204D0064B9B69002B00D098478020C002FFF78FFF70BD10020B40A4
:401A0000E0000020F4040020FFFBFFFF014B18707047C04673000F400230800804D0C0460138FDD1C046C046C0467047EFF3108072B6704780F310887047C0460022430859
:401A40008B4274D303098B425FD3030A8B4244D3030B8B4228D3030C8B420DD3FF22090212BA030C8B4202D31212090265D0030B8B4219D300E0090AC30B8B4201D3CB03C0
:401A8000C01A5241830B8B4201D38B03C01A5241430B8B4201D34B03C01A5241030B8B4201D30B03C01A5241C30A8B4201D3CB02C01A5241830A8B4201D38B02C01A5241EB
:401AC000430A8B4201D34B02C01A5241030A8B4201D30B02C01A5241CDD2C3098B4201D3CB01C01A524183098B4201D38B01C01A524143098B4201D34B01C01A52410309F9
:401B00008B4201D30B01C01A5241C3088B4201D3CB00C01A524183088B4201D38B00C01A524143088B4201D34B00C01A5241411A00D20146524110467047FFE701B500204F
:401B400000F006F802BDC0460029F7D076E770477047C046014B18687047C046440100200E4B70B500251E000D4CE41AA410A54204D0AB00F35898470135F8E700F08CF81E
:401B8000084B00251E00084CE41AA410A54204D0AB00F35898470135F8E770BDA41C0000A41C0000A41C0000B01C0000002310B59A4203D0CC5CC4540133F9E710BD0300F0
:401BC0008218934202D019700133FAE77047002330B59A420BD0013AC45CCD5CAC4205D19A4202D00133002CF6D12500631B180030BD0000000000005550440053445249B0
:401C00005645000002000F4004320F400D330F4002400F4012410F40723F73015B045F01DB04DF0168026C046D806FA07560800483808402856089408B20E280E6206208EB
:401C4000D840522057805B20630264106702822083018410860887018BA0A608D4E0D6C0D880E210E6F0030405060708090A0B0C0E0F101112131415161718191B1C1D1E8C
:401C80001F2021222325262728292A2B2E2F30313233343543000000F8B5C046F8BC08BC9E4670473902000051130000C1130000F8B5C046F8BC08BC9E4670471102000086
:401CC000D01C0000C800002080000000D003000000000000010000000000E02EC05D00001800000000366E01040404000000000000000000000000000000000000000000C8
:401D0000000000000000000000000000941C0000000000000000000000000000000000000000000000000000000000000000000000000000000000000000000000000000F3
:401D4000000000000000000000000000E40000200000000000000000000000000000000000000000000000000000000000000000000000000000000000000000000000005F
:401D80000000000000000000000000000000000000000000000000000000000000000000000000000000000000000000000000000000000000000000000000000000000023
:401DC00000000000000000000000000000000000000000000000000000000000000000000000000000000000000000000000000000000000000000000000000000000000E3
:401E000000000000000000000000000000000000000000000000000000000000000000000000000000000000000000000000000000000000000000000000000000000000A2
:401E40000000000000000000000000000000000000000000000000000000000000000000000000000000000000000000000000000000000000000000000000000000000062
:0200000490303A
:0200000029F3E2
:0200000490402A
:200000000000000000000000000000000000000000000000000000000000000000000000E0
:0200000490501A
:0C000000000204C81193110104D23B86D9
:0200000490600A
:0100000001FE
:00000001FF