:40000000FC0F002011000000711300007113000008B501F0B5F90000F8B572B680220021D2004D4801F0DFFD802200244B480021D20001F0D8FD201C494AFF25A75810320E
:400040003E1C111C4300AE433D4001334019D318420001328A18934206D0591E09781D7889190D700233F6E70434102CE4D13D4A3D4B3E491A603E4A3E4B3C251A60EE221B
:400080003D4B12021A6099223C4B3D481A6099233C4A1B0413603C4A13603C4A116002213B4A13603B4A13603B4A13780B4313700378AB43283D2B43037016201378374D3D
:4000C00003431370D122364B40181A60354A364B1A60D022354B1A60354B523A1A60354A354B1A608022354B92011C60344B1A60D822344B12011A603122334B1960334B94
:400100001A608022324BD20219602B6813432B6001F04AFB2A682F4B2F4913402B602F4A2F4B09201A6020222E4B1A6080222E4B12061C6000242D4B1A602D4A2D4B2C60C2
:400140001A602D4A2D4B1A6001F0F0FA092001F0F5FA2B4B1C60F8BD00300F4000400F40301C00000000FFFF0000014000004B8D30333303040001400C0001401000014024
:4001800001700F4000500F4010500F4018500F4020500F4030500F4000700F4000010B400000044002E0D800080004401800044000010440B06D1B0008010440000204402B
:4001C0000802044008030440000404400804044018040440FFFFFBFF6D1900000600008004010B40080202400C02024008010B400200008000000240100000804000024050
:400200000C020B4010B5064C2378002B07D1054B002B02D0044800E000BF0123237010BD5001002000000000201C000008B5084B002B03D00748084900E000BF0748036840
:40024000002B00D108BD064B002BFBD09847F9E700000000201C000054010020D0000020000000000047011C00784B788A781B02120413431843CB781B06184370470378A0
:40028000407800021843704708B5084B1A6810231340074A00D113601368802B04D10548FFF7E1FFFFF7DEFF08BDC04600030B40C0000020C17F0000634BF0B51F68DB23C3
:4002C00087B09B00FD180590EA79A8792B7A120202431B0413431A1C00246B7A201C1B0613435A4A190ABA1813705170190C1B0ED370917056494022AC74EC7400F030FF8A
:400300005448FFF7BCFF051C5348FFF7B8FF02905248FFF7A8FF3B1C0190381C18332E300493FFF7ACFF061C381C2C30FFF7A7FF0390381C3030FFF796FFCD23290A320A82
:4003400089B292B29B00914274D1059A002A09DD029A03998A420ED1019A82420BD1AE4209D167E0029A03998A4263D1019A824260D1AE425ED9FB5800209847FA204000D2
:4003800001F0F2F93648FFF76EFF364BC5091B68EE01B34246DA00230193FF2D37D8DB239B00FC18E279A079237A120202431B0413431A1C0020637A1B061343234A190AF2
:4003C000BA1813705170190C1B0E9170D370311CA074E074802200F0C3FECD239B00002810D001220199FB58521A0192DB20002A00D1E7209847281C049901F0BFF8803690
:400400000135CAE7FD20FB589847962010E0CD239B00FB58FE209847FA20400001F0A4F901200EE0CD239B00FD20FB589847FA20400003E0FC20FB589847642001F094F9A7
:40044000002007B0F0BDC046FC0F00207A030000C07F0000D67F0000D47F0000D87F0000C17F0000E01C000070B5FFF70DFF00F029FF62B62E4B1C68CD239B00E358FD2099
:4004800098470126CD2501F0C1FAAD00002809D0C82001F069F96359012EF0D1FF2098470026EFE76359FD30984700F049F800F053F80028F9D100F08DFB002803D16420EB
:4004C00001F052F9F7E7CD239B00E358FE2098470026301C002100F081FC00281CD0211C14482031032201F086FB002811D1257E211C213D6B425D411831EDB249190E4857
:40050000062201F078FB002803D1281CFFF7D4FE02E00136B6B2DCE7CD239B00E358FF2098478022054B1A6001F012F9002070BDFC0F0020241C0000281C0000C0000020DB
:400540000122044B52421B6800215A61C622920099547047FC0F002008B5044B1A68C9239B00D05800F0FAFAC0B208BDFC0F002008B5074B021C1B68C920191C80001931B2
:400580001858FF31012300F027FAC0B208BDC046FC0F002008B5074B021C1B68C920191C800019311858FF31012300F06DFAC0B208BDC046FC0F0020F8B5CF231B4D9B0041
:4005C0002E68071CF3589847FF2400282BD0CD222B6892009C5804329B589847FD231840A047002F1AD010277069FFF7D3FF041E03D0013FFFB2002FF6D1002CFDD1C623B3
:40060000CD229B00F4542B6892009D5804329B58984702231843C0B2A84704E0C62301223C1C9B00F254201CF8BDC046FC0F002008B5064B1A68C6239B00D35C002B04D058
:400640000120FFF7B9FF0028FAD108BDFC0F00200B4B70B51E68736998420FD0041C0025FFF7E6FF201CFFF783FF013DEDB2002801D0002DF6D10028FDD1746170BDC04696
:40068000FC0F0020064B10B51C68A3689847E36898470028FBD023699847C0B210BDC046FC0F00200023F0B5061C181C0131891A8B420DD007249F18FD08751BED7B3C409B
:4006C00025412C1C01252C409C405B192043EFE7F0BD002383607047002370B5C360051C4020141C0143C8B2FFF7CCFF200EFFF7C9FF2014C0B2FFF7C5FF2012C0B2FFF746
:40070000C1FFE0B2FFF7BEFF9520FFF7BBFF0D4EFF20FFF7B7FF7F23021C9A43D3B2041C002B04D1FF20FFF7ADFF201C09E0013E002EEDD10123FF20EB60FFF7A3FF01208F
:40074000404270BD8813000038B5051C0B4C37210022281CFFF7C0FF281C29210022FFF7BBFF002804D180239B006B60013003E0013C002CEBD1201C38BDC04688130000E6
:4007800038B50023051CC3604020141C0143C8B2FFF778FF200EFFF775FF2014C0B2FFF771FF2012C0B2FFF76DFFE0B2FFF76AFF9520FFF767FF0A4CFF20FFF763FF7F230F
:4007C000021C9A43D3B2002B09D0013C002CF3D10123FF20EB60FFF755FF0120404238BD8813000070B50024051CC4607A20FFF749FF201CFFF746FF201CFFF743FF201CB0
:40080000FFF740FF201CFFF73DFF9520FFF73AFF144EFF20FFF736FF7F23021C9A43D3B2041C002B12D1FF20FFF72CFFFF20FFF729FFFF20FFF726FFFF20FFF723FF012323
:40084000FF20EB60FFF71EFF201C09E0013E002EDFD10123FF20EB60FFF714FF0120404270BDC0468813000070B5051C0A24114B1E68D0239B00F35832209847281CFFF717
:40088000B1FF37210022281CFFF726FF8022281C2921D205FFF720FF002806D1281CFFF7A1FF012302206B6003E0013C002CE0D1201C70BDFC0F002073B50024051CC46087
:4008C0004820FFF7DFFE201CFFF7DCFE201CFFF7D9FE0120FFF7D6FEAA20FFF7D3FE8720FFF7D0FEFF20FFF7CDFE030612D46B4604261870FF20FFF7C5FE6B46013E18555A
:40090000002EF7D10123FF20EB60FFF7BBFE6B4618780AE0054B01349C42E3D10123FF20EB60FFF7AFFE0120404276BD404B4C0038B5174B051C1C68C7239B00E158154855
:4009400001F08AF8236880B200219847636898471024FF20013CFFF795FE002CF9D1281C211C221CFFF7B8FE012801D000200DE0281CFFF7A1FF012803D1281CFFF774FF98
:4009800004E00528F2D1281CFFF7DEFE38BDC046FC0F0020006CDC02002370B5061C0C1C151CC360FF20FFF76DFEFE28FAD16519FF20AC4204D0FFF765FE20700134F7E72B
:4009C000FFF760FEFF20FFF75DFE0123FF20F360FFF758FE002070BDF7B501938368051C0E1C171C141C002B18D0019BFB189C4212D26A68281C62431121FFF76DFE002831
:400A00000FD18022311C281C9200FFF7C5FF80239B00F6180134E8E7002003E00120404200E00120FEBD002370B50C1C161CC360051CFE20FFF726FEA619B44204D0207866
:400A4000FFF720FE0134F8E7FF20FFF71BFEFF20FFF718FEFF20FFF715FE1F231840052806D00124FF20EC60FFF70CFE201C0AE0FF20FFF707FE0028FAD00123FF20EB60E0
:400A8000FFF700FE002070BDF7B501938368051C0E1C171C141C002B18D0019BFB189C4212D26A68281C62431821FFF715FE00280FD18022311C281C9200FFF7B4FF802382
:400AC0009B00F6180134E8E7002003E00120404200E00120FEBD7FB509210022051C0024FFF74EFEA04235D1281C69461022FFF753FFA0422ED168467F217E22FFF7D2FDF7
:400B0000A0420AD0012825D168603F2168463022FFF7C8FD441CA4021CE080239B006B6049213E226846FFF7BDFD3121061C2F226846FFF7B7FD5321051C50226846FFF7FC
:400B4000B1FD01231C1C84400235F018AB4044435C43640A201C04B070BD000038B5114B041C1D68FFF7E4FEA060002801D1012415E0201CFFF7AFFF802220601021201C83
:400B80009200FFF7A9FD041EF1D1C8239B00E958054800F061FF2B6880B2211C9847201C38BDC046FC0F0020006CDC02D122084B92001B689B18002803D118895B68181A92
:400BC00004E01A7B023850435B68C0187047C046FC0F0020F8B55D4B00201C68FFF738FD5B4BE65C5B4BE018E15C437885781B020B432D041A1C2B1CC57813432D061D434E
:400C0000A7235B00E35C462B15D15023FF33E35C412B10D11033FF33E35C542B0BD15223FF33E35C312B06D12233FF33E35C362B01D100250E26281CFFF70AFDD1239B007E
:400C4000E118231C24334D60FF33DA799F7912023A43100908811A7BDF7A12023A435F79BC46002A08D0DF781B791B023B4367467A439B181A1811E09F7E5A7E3F023A4394
:400C8000DF7E3F0417431A7F1206174362467A431218D8781B791B020343D218231C521924334A60FF339A78043E0A732422FF32A05C5A78F6B2120202434A81DA781B79CA
:400CC00000201B021343ED18D1239B00E550012510336D42E5500A2E36D801273B1CB3401E1C1D4B1E4224D1C0235B001E422BD0231C2633FF33D87F0133DA7F0133DB7FC7
:400D0000120202431B0413431A1C231C2933FF33DB7F1B061343114A190AA21813705170190C1B0ED370D5239B00E4189170657509E00A4BE318187058709870D870D523C9
:400D40009B00E4186075381CF8BDC046FC0F0020DA020000DE02000005040000760300001B4BF0B51E6885B0331C1933FF330093D5239B00F3185B7D002B02D08500154C10
:400D800001E0154C4500D1239B00F3185F89281C391C00F0E7FE281C0191391C00F05CFED1239B00F358C018FFF752FC019A009B94466344191C03A8042200F00BFF0398FF
:400DC0002040041B631E9C416442204005B0F0BDFC0F0020FFFFFF0FFFFF0000AA4BF0B51C688BB0231C1933FF330893DB239B0001900791E018C37A817A067B1B020B43EA
:400E000036041A1C331C1343D522271C9200467BA15836061E431837A3188E4202D0A65000221A711A79002A09D0DD880199A9420ED804D1012A02D1079A002A08D0301C03
:400E4000FFF7B4FE0023029000931D1C059327E01A7D1E6903929A6802921B7B0093002305930298FFF7F4FB039B089A5B01D3181878002800D1AEE0E52818D1039A20337A
:400E80000132D2B20392102AF2D1D1239B00E3181B7B009A934200D88FE0029B01330293009B0133DBB2009300230393D9E7DA7A0F2A38D107990029E0D0013802400D208E
:400EC0004243BA18101C591C8C46511D049161460978017002218C44049901308842F6D1181C111C0E300B31069009910699049809780170011C01310491069904980231B0
:400F0000069109998842F1D1197FD172997F11731978490601D5002151730F2219780A40012AABD108E00599002907D0019A95424DD000220135ADB205929FE72E2804D113
:400F40005978202901D1D10698D408210A4095D101998D422ED1995CB9540132082AFAD1197A621CD177597AA21CD177997AE21CD1770021221DD177079A8A4229D0221CF8
:400F8000211C24322031013A107850708A42FAD1227E2E2A02D02E21621CD1773A1C1178202901D039700137013211780029F6D139700EE00135ADB260E7301CFFF7D0FE4B
:400FC000061CFFF7F3FD00230290009368E7022001E00120019D5A7D197D12020A431704DA7E997E12020A432849BA186118170A0A704F70170C120ECA70DB2292008F70B6
:40100000A1186A4612790A75019A120A4A75597F1A7F090211439A7F12040A43111CDA7F12060A431A49170A61180A704F70170C120ECA70DB228F70D97A9200A154DA7DB0
:40104000997D12020A43134961180A70120A4A705A7E1B7E120213430F4AA21813701B0A537000280DD0D5239B00E4186B461B7BE5802375029B2661A3606B461B782071A7
:4010800023730BB0F0BDC046FC0F002072030000820300006F0300006D030000F8B52D4B061C1D68DB239B00EC18E37CA27C1B021343984216D2E279A079237A12020243A0
:4010C0001B0413431A1C0021637A1B061343224A180AAA1813705070180C1B0E9070D370A174E174E27CA37C12021A43A07BE37B277C617CB2421BD01A02131C03433804B0
:40110000034308061843FFF72BFE134B020AEB1818705A70020C000E9A70D870E37CA27C1B02134301339BB2A3741B0AE374D9E7D5229200AD181B023F046A7D03433B4397
:4011400008060343501E82410448524202431340181CF8BDFC0F00207A030000FFFF0000F0B5D124DB26564B89B01B68A40001931B191D7B5C89019BB6009E19F37DB77D55
:401180001B021F43337E1B043B43777E3F063B43994201D300268FE00792019A654318320392019A5B1A1932FF320F1C0490081C291C0592069300F04FFC45437D1B211C2F
:4011C0000290281C00F048FC6B46071C44431889FFF764FFF37BB17B307C1B020B4300041A1C031C707C134300061843FFF7DEFCC019FFF72DFA039A2C1B9446151C079B8C
:4012000063440793069B63440693039BEE1A079BB6B29D4239D0D122019B92009B185B899C422FD3049B012B10D0D122019B92009B181B7B01379F420ED3029B0027013355
:4012400002936B461889FFF729FF05E00020FFF7B3F90028E9D09DE7DB22019B92009C18E37BA17B207C1B020B4300041A1C031C607C134300061843FFF798FCC019FFF7B8
:40128000E7F90024069B9D4203D1049B012B13D10CE0049B012B03D12B78059A135502E0059B1B5D2B7001340135AEE70020FFF783F9002800D06DE7301C09B0F0BDC046C7
:4012C000FC0F0020E32210B5174C0021201C920000F089FC154B164A1C60C7239B00E250144A0433E250144B144A2360144B6360144BA360144BE360144B2361CE239B00A3
:40130000E250134A043BE250124A0833E250124A0433E2504C33E218683BE250E72264339200E25010BDC0466C010020FC0F0020A086010000093D00511500007115000089
:4013400029140000611400005114000045140000651500001D1A00006917000008B5E32302489B00C018FFF7B4F908BD6C01002008B500F003FC03680C2B00D1FEE7FEE76E
:4013800070B51049104B01394A1C15D000221E685C689D68A018AA4203D0B058A0500432F8E7021CDC68151AA54202D0002520C2F9E710330139E7E700F0E6FBFFF754F84B
:4013C000FEE7C04601000000D01C000008B500239A000B49032B01D80A4989580A4801338150302BF4D1FEF717FE0022074B01211A608022D20513680B43136008BDC046FB
:40140000711300000000000000000020C80000208021044A08B5136809060B43136000F02DF808BD0000074010B5054C2378002B03D100F049F801232370FFF7E9FF10BDC5
:4014400008050020014B18687047C04640030740024B18680F2318407047C04608030740044B1A680F231340082BF9D0024B18607047C0460802074040020740F021074BB5
:4014800009051A680A43F0211A601A6809060A431A60034B1A88034B1A607047000001400A050020880F07400549064B0A6880061340C02212051040184308607047C046FC
:4014C00020000740FFFFFFF30721002008B5104A104B1A60104A114B1A60114B114A1360114A1160114A1360114B1860114B1860114B1860114B1860114B1860114B186075
:40150000114B18601A68114B1A80FFF7CDFF08BD0F0000010000074001000080200007400701008000030740040307400002074004020740880E0740C80E0740480F07404B
:40154000080F0740C80F0740880F07400A050020034A13681B0C1B04184310607047C04600000240014B18707047C04672000F40014B1878C0B2704772000F40F0B5002429
:40158000ADB008940994FF2800D9AEE0A14200D1ABE0039080220CA800F01CFB0222211C01940AAB9000C058002802D00918044301920132222AF4D1002903D1002C00D053
:4015C00096E000E0002402947F224E494E4D0A914E4F5A604E4A2B603A60C0462B6805911B0F06920F2B02D12B68DBB205E02A680023120F0A2A00D02B680893089E002E7A
:4016000000D07CE000F01EFA424A434B116809961960089B04900792002B19D13F4A03990A920A9A09040A430AA90A9229603C49354A3960C0462968090F0F2902D113687D
:40164000DBB204E01168090F0A2900D013680893089E002E3DD1002C3BD00CA8311C802200F0C1FA019B029A0AAC9B001A51059B069A0A937F2363602C60234B3A60C04618
:401680002A68120F0F2A02D11E68F6B204E01A68120F0A2A00D01E680896089B002B18D1204A03990A920A9A08041F4910430A90154A2C603960C0462968090F0F2902D1F2
:4016C0001368DBB204E01168090F0A2900D013680893099B002B04D10F4A079912680A600993049800F0B2F909E00423089306E0019A0124920098589950029064E70898C7
:401700002DB0F0BDB6D7000008000040040000400400008008010B400C050020B6D8000005000080B6D9000006000080024B8000C318186819607047400000201F23184083
:401740001E3B8340181C014B1860704700E100E0034A044913689BB20B4313607047C0460CED00E00400FA0510B5041C8022074B1202944205D9586800F05AF9044BE41832
:40178000F4E79868604300F053F910BDD40000200080FFFF08B5034B1B7B584300F048F908BDC046D4000020F0B5051C87B000F049F9EB1E049003932D2B5BD8304B1B7809
:4017C0009D4204D82F4B1C782F4BE4B21EE02F4B1B789D4204D82E4B1C782E4BE4B215E02D4B1B789D4204D82C4B1C782C4BE4B20CE02C4B1B789D4204D82B4B1C782B4B2A
:40180000E4B203E02A4B1C782A4BE4B21B78039ADBB20193284B294F9A5C059302922F2A04D92A2D02D919263E6008E03F233E681E40029BB34205D2204B029A1A6005201B
:4018400000F0F6F81B4B1E4AED182B780520DBB213601C4B019A1C601B4B1A60FFF79AFF029BB34206D9059B039A05209B5C3B6000F0DEF8049800F0E9F807B0F0BDC04600
:40188000C0F1FF0FC1F1FF0FC2F1FF0FC3F1FF0FC4F1FF0FC5F1FF0FC6F1FF0FC7F1FF0FC8F1FF0FC9F1FF0FCAF1FF0FCBF1FF0FCCF1FF0FCDF1FF0F781C00002CFF0B4051
:4018C00028FF0B401CFF0B4020FF0B4008B500F0B9F8C021034A090213680B43136000F0B5F808BD00010B4010B5802400F0AAF80749084B0A68E4011A4022430A600A6895
:4019000013408022120213430B6000F09FF810BD00010B40FF3FFFFF70B5051C00F092F80E4B041C1A68C0231B02134011D10C480C490540281C0E680B4A324010430860E7
:401940000A68012B01D1FFF7C1FF201C00F07EF870BDFFF7C9FF0123E9E7C04600010B400404040010020B40FBFBFBFF042238B5224C2368134213D021490B6813420CD0C3
:40198000204BDD6908681540A8430860D9699143D9611B69002B00D098470420FFF7BCFF80232268DB001A4215D015490A681A420DD0144AD56908682B4098430860D16995
:4019C000114B0B40D3615369002B00D098478020C000FFF7A1FF80232268DB021A420CD0074A12681A4204D0064B9B69002B00D098478020C002FFF78FFF38BD10020B40DC
:401A0000E800002010050020FFFBFFFF024B1868012318407047C04604000440024B1868C006C00F7047C04604020440000000000230800804D0C0460138FDD1C046C04613
:401A4000C0467047EFF3108072B6704780F310887047C046C046C046002243088B4274D303098B425FD3030A8B4244D3030B8B4228D3030C8B420DD3FF22090212BA030C6E
:401A80008B4202D31212090265D0030B8B4219D300E0090AC30B8B4201D3CB03C01A5241830B8B4201D38B03C01A5241430B8B4201D34B03C01A5241030B8B4201D30B032B
:401AC000C01A5241C30A8B4201D3CB02C01A5241830A8B4201D38B02C01A5241430A8B4201D34B02C01A5241030A8B4201D30B02C01A5241CDD2C3098B4201D3CB01C01A27
:401B0000524183098B4201D38B01C01A524143098B4201D34B01C01A524103098B4201D30B01C01A5241C3088B4201D3CB00C01A524183088B4201D38B00C01A524143080D
:401B40008B4201D34B00C01A5241411A00D20146524110467047FFE701B5002000F00CF802BDC0460029F7D003B5FFF775FF0EBC4243891A1847C0467047C046014B186891
:401B80007047C0464C0100200E4B70B500251E1C0D4CE41AA410A54204D0AB00F35898470135F8E700F080F8084B00251E1C084CE41AA410A54204D0AB00F3589847013588
:401BC000F8E770BDB41C0000B41C0000B41C0000C01C0000002310B5934203D0CC5CC4540133F9E710BD031C8218934202D019700133FAE77047002330B59A420DD0013A2B
:401C0000C45CCD5CAC4202D1934202D1251C631B03E00133002CF3D1F8E7181C30BD00000000000055504400534452495645000001000F4002320F400A330F400E410F4079
:401C4000723F5B045F016FA675107702838087028B208D108F06E2C0E65050405780598864106702830184108B808C408D88D4E0D6C0D880E6600000030405060708090A5B
:401C80000B0C0E0F101112131415161718191B1C1D1E1F2021222325262728292A2B2E2F3031323334354300F8B5C046F8BC08BC9E4670472D0200005D130000CD130000E0
:401CC000F8B5C046F8BC08BC9E46704705020000E01C0000D000002080000000E003000000000000010000000000E02EC05D00001800000000366E010404040000000000D3
:401D000000000000000000000000000000000000000000000000000000000000A61C00000000000000000000000000000000000000000000000000000000000000000000E1
:401D400000000000000000000000000000000000000000000000000000000000EC000020000000000000000000000000000000000000000000000000000000000000000057
:401D80000000000000000000000000000000000000000000000000000000000000000000000000000000000000000000000000000000000000000000000000000000000023
:401DC00000000000000000000000000000000000000000000000000000000000000000000000000000000000000000000000000000000000000000000000000000000000E3
:401E000000000000000000000000000000000000000000000000000000000000000000000000000000000000000000000000000000000000000000000000000000000000A2
:401E40000000000000000000000000000000000000000000000000000000000000000000000000000000000000000000000000000000000000000000000000000000000062
:0200000490303A
:020000003CB909
:0200000490402A
:200000000000000000000000000000000000000000000000000000000000000000000000E0
:0200000490501A
:0C000000000204C81193110104D24E4C00
:0200000490600A
:0100000001FE
:00000001FF