:40000000FC0F002011000000491300004913000010B501F0A1F90000F7B572B680220021D2004D4801F0BBFD80220024D20000214A4801F0B4FDFF252200494E1036484B32
:40004000E15853000F00294052185100013101337118AF43F318019101998B4207D0591E0978C9190800197802330170F4E70434102CE4D13B4A3C4B3C491A603C4A3D4BCF
:400080003D4D1A60EE223D4B12021A6099223C4B18201A6099233B4A1B0413603A4A13603A4A11603C213A4A13603A4A13603A4A13788B4328390B431370384A02311378C9
:4000C0000B431370D122364B1B311A60354A364B1A60D022354B1A60354B523A1A60354A354B1A608022354B92011C60344B1A60D822344B12011A600223334A1360334ACE
:400100001160334A136080222B68D20213432B6001F030FB2A682F4B2F4913402B602F4A2F4B09201A6020222E4B1A6080222E4B12061C6000242D4B1A602D4A2D4B2C60EB
:400140001A602D4A2D4B1A6001F0D6FA092001F0DBFA2B4B1C60F7BD00300F4000400F40E41B00000000FFFF0000014000004B8D303333030400014000010B400C000140AB
:400180001000014000500F4010500F4018500F4020500F4030500F4001700F4000700F400000044002E0D800080004401800044000010440B06D1B00080104400002044026
:4001C0000802044008030440000404400804044018040440FFFFFBFF391900000600008004010B40080202400C02024008010B400200008000000240100000804000024084
:400200000C020B4010B5064C2378002B07D1054B002B02D0044800E000BF0123237010BD4801002000000000D41B0000084B10B5002B03D00749084800E000BF074803688D
:40024000002B00D110BD064B002BFBD09847F9E7000000004C010020D41B0000C800002000000000004710B50278437881781C02C0780B04234313430006184310BD037867
:400280004078000218437047084B10B51A6810231340074A00D113601368802B04D10548FFF7E1FFFFF7DEFF10BDC04600030B40C0000020C17F0000624BF0B51C68DB23B7
:4002C00085B09B00E5180390EA79A8792B7A120202431B0413431A0000206B7A1B061343594A190AA21813705170190C1B0ED370917040225549A874E87400F025FF544893
:40030000FFF7BDFF00905348FFF7B9FF07005248FFF7A9FF23000500200018332E300293FFF7ADFF019020002C30FFF7A8FF060020003030FFF797FFCD23039A9B00002ABD
:4003400008DDB7420ED185420CD1009A01998A4208D16DE0B7426BD1854269D1009A01998A4265D2E35800209847FA20400001F0E1F93A48FFF777FFCD27C609F3010093F2
:40038000374BBF001B68F20193424BDA00230193FF2E3CD8DB239B00E118CA798D790B7A12022A431B0413431A0000204B7A1B061343254A1D0AA218137055701D0C1B0EDE
:4003C0009570D3708874C8748022009900F0BCFE051E11D00123019ADB209B1A019300D1E720E35998473000029901F0AFF8009B013680330093CBE7CD239B00E358FD208E
:4004000098479620400001F095F9280017E0CD239B00E358FE209847FA20400001F08AF901200CE0FD20E3599847FA20400003E0FC20E3589847642001F07CF9002005B041
:40044000F0BDC046FC0F00207A030000C07F0000D67F0000D47F0000D87F0000C17F0000A01C000070B5FFF70FFF00F017FF62B6CD252E4BAD001C68FD2063599847012625
:4004800001F0AAFA002809D0C82001F053F9012EF2D1FF20635998470026F1E7CD239B00E358FD30984700F049F800F053F80028F9D100F08DFB002803D1642001F03AF98B
:4004C000F7E7CD239B00E358FE20984700260021300000F075FC00281CD0210003222031134801F064FB002811D1257E2100213D6A426A411831D5B2491906220D4801F00A
:4005000056FB002803D12800FFF7D6FE02E00136B6B2DCE7CD239B00E358FF2098478022054B1A6001F0FAF8002070BDFC0F0020D81B0000DC1B0000C00000200122044B71
:4005400052421B6800215A61C622920099547047FC0F0020044B10B51A68C9239B00D05800F0FAFAC0B210BDFC0F0020074B10B51C6802002100C92019318000FF310123E7
:40058000205800F027FAC0B210BDC046FC0F0020074B10B51C6802002100C92019318000FF310123205800F06DFAC0B210BDC046FC0F0020F8B5CF231A4D9B002E68070000
:4005C000F3589847FF2400282AD0CD222B6892009C5804329B589847FD231840A047002F19D010277069FFF7D3FF041E04D0013FFFB2002FF6D1FEE7C623CD229B00F054B4
:400600002B6892009D5804329B58984702231843C0B2A84704E0C62301223C009B00F2542000F8BDFC0F0020064B10B51A68C6239B00D35C002B04D00120FFF7BBFF002867
:40064000FAD110BDFC0F00200A4B70B51E680500736983420DD0FFF7E7FF00242800FFF785FF013CE4B2002802D0002CF6D1FEE7756170BDFC0F0020064B10B51C68A3681A
:400680009847E36898470028FBD023699847C0B210BDC046FC0F0020F0B50F23002406009C4620000131891A8C420DD067461519EB08FB1A0727F35C3D402B4101252B4006
:4006C000A34064191843EFE7F0BD002383607047F8B500230500C360402014000143C8B2FFF7CAFF200EFFF7C7FF2014C0B2FFF7C3FF2012C0B2FFF7BFFFE0B2FFF7BCFF33
:400700009520FFF7B9FF7F270C4EFF20FFF7B4FF0300BB43DBB20400002B04D1FF20FFF7ABFF200009E0013E002EEED10123FF20EB60FFF7A1FF01204042F8BD88130000F1
:4007400070B505000B4C002237212800FFF7C0FF002229212800FFF7BBFF002804D180239B006B60013003E0013C002CEBD1200070BDC04688130000002370B5C3600500C0
:40078000402014000143C8B2FFF776FF200EFFF773FF2014C0B2FFF76FFF2012C0B2FFF76BFFE0B2FFF768FF9520FFF765FF7F26094CFF20FFF760FF0300B343DBB2002BDB
:4007C00009D0013C002CF4D10123FF20EB60FFF753FF0120404270BD88130000F8B500240500C4607A20FFF747FF2000FFF744FF2000FFF741FF2000FFF73EFF2000FFF7C9
:400800003BFF9520FFF738FF7F27144EFF20FFF733FF0300BB43DBB20400002B12D1FF20FFF72AFFFF20FFF727FFFF20FFF724FFFF20FFF721FF0123FF20EB60FFF71CFF28
:40084000200009E0013E002EE0D10123FF20EB60FFF712FF01204042F8BDC04688130000F8B5D0270500114B114C1E68BF00F359322098472800FFF7B1FF0022372128002F
:40088000FFF726FF80222921D2052800FFF720FF002806D12800FFF7A1FF012302206B6003E0013C002CE2D12000F8BDFC0F00208813000073B500240500C4604820FFF7E2
:4008C000DBFE2000FFF7D8FE2000FFF7D5FE0120FFF7D2FEAA20FFF7CFFE8720FFF7CCFEFF20FFF7C9FE030612D46B4604261870FF20FFF7C1FE6B46013E1855002EF7D11A
:400900000123FF20EB60FFF7B7FE6B4618780AE0054B01349C42E3D10123FF20EB60FFF7ABFE0120404276BD404B4C00174B70B51C68C7239B00E1580500154801F06EF8E0
:40094000236880B200219847636898471024FF20013CFFF791FE002CF9D1220021002800FFF7B6FE012801D000200DE02800FFF7A1FF012803D12800FFF772FF04E005288E
:40098000F2D12800FFF7DCFE70BDC046FC0F0020006CDC02002370B506000C001500C360FF20FFF769FEFE28FAD16519FF20AC4204D0FFF761FE20700134F7E7FFF75CFE2E
:4009C000FF20FFF759FE0123FF20F360FFF754FE002070BDF7B50193836805000E001700002B17D01400019BFB189C4215D26A68112162432800FFF76BFE00280FD1802297
:400A0000310092002800FFF7C5FF80239B00F6180134E8E70120404202E0002000E00120FEBD002370B50C001600C3600500FE20FFF722FEA619B44204D02078FFF71CFE69
:400A40000134F8E7FF20FFF717FEFF20FFF714FEFF20FFF711FE1F231840052806D00124FF20EC60FFF708FE20000AE0FF20FFF703FE0028FAD00123FF20EB60FFF7FCFD35
:400A8000002070BDF7B50193836805000E001700002B17D01400019BFB189C4215D26A68182162432800FFF713FE00280FD18022310092002800FFF7B4FF80239B00F61891
:400AC0000134E8E70120404202E0002000E00120FEBD7FB50022092105000024FFF74CFEA04235D1102269462800FFF753FFA0422ED17E227F216846FFF7CEFDA0420AD023
:400B0000012825D1686030223F216846FFF7C4FD441CA4021CE080239B006B603E2249216846FFF7B9FD2F22060031216846FFF7B3FD5022050053216846FFF7ADFD01232E
:400B40001C0084400235F018AB4044435C43640A200004B070BD0000114B70B504001D68FFF7E4FEA060002801D1012415E02000FFF7AFFF80222060920020001021FFF721
:400B8000A7FD041EF1D1C8239B00E958054800F045FF2B6880B221009847200070BDC046FC0F0020006CDC02D122084B92001B689B18002803D118895B68181A04E01A7BBF
:400BC000023850435B68C0187047C046FC0F00205C4BF7B500201C68FFF736FD5A4BE65C5A4BE018E15C437885781B020B432D041A002B00C57813432D061D43A7235B00E0
:400C0000E35C462B15D15023FF33E35C412B10D11033FF33E35C542B0BD15223FF33E35C312B06D12233FF33E35C362B01D100250E262800FFF708FDD1239B00E1182300A5
:400C400024334D60FF33DA7998791202024317090F81187BDA7A000210435A790192002807D04243D8781B791B020343D318DA1913E0587E84466246987E00021043DA7E88
:400C8000120410431A7F12061043019A4243D8781B79D2191B020343D2182300521924334A60FF339A7801270A732422FF32A05C5A787F42120202434A81DA781B790020E3
:400CC0001B0213435D19D1239B00E5501033E7500E2E35D801252B00B3401D4A134224D1C022520113422BD023002633FF33D87F0133DA7F0133DB7F120202431B0413431C
:400D00001A0023002933FF33DB7F1B061343114A190AA21813705170190C1B0ED370D5239B00E4189170677509E00A4BE318187058709870D870D5239B00E4186075280039
:400D4000FEBDC046FC0F0020DA020000DE0200005040000076030000164BF7B51D682B001933FF330093D5239B00EB185B7D002B02D08400104E01E0104E4400D1239B0095
:400D8000EB185F892000390000F0CEFE20000191390000F043FED1239B00EB58C018FFF753FC009B019A98583040864200D10020FEBDC046FC0F0020FFFFFF0FFFFF0000E3
:400DC000AB4BF0B51C688BB023001933FF330893DB239B0000900791E018C37A817A067B1B020B4336041A0033001343D52227009200467BA15836061E431837A3188E42C2
:400E000002D0A65000221A711A79002A09D0DD8800998D420ED304D1012A02D1079A002A08D03000FFF7C0FE0023019003931D00059327E01A7D1E6902929A6801921B7BBC
:400E40000393002305930198FFF7FEFB029B089A5B01D3181878002800D1B0E0E52818D1029A20330132D2B20292102AF2D1D1239B00E3181B7B039A934200D891E0019B56
:400E800001330193039B0133DBB2039300230293D9E7DA7A0F2A39D107990029E0D001381040023A5043381801005A1C9446421D0492624612780A7002229444049A013187
:400EC0008A42F6D1190002000E310B3206910992069A049912780A700A0001320492069A049902320692099A8A42F1D140211A7FC2729A7F02731A780A4201D00022427306
:400F00000F2219780A40012AAAD108E00599002907D0009A95424ED000220135ADB205929EE72E2805D15978202902D110390A4296D108210A4093D100998D422ED1995CCF
:400F4000B9540132082AFAD1197A621CD177597AA21CD177997AE21CD1770021221DD177079A8A4229D02200210024322031013A107850709142FAD1227E2E2A02D02E2177
:400F8000621CD1773A001178202901D039700137013211780029F6D139700EE00135ADB25EE73000FFF7D8FE0600FFF7FDFD00230190039366E7022001E00120009D5A7D6F
:400FC000197D12020A431704DA7E997E12020A432849BA186118170A0A704F70170C120ECA70DB2292008F70A1186A4612780A75009A120A4A75597F1A7F090211439A7F1E
:4010000012040A431100DA7F12060A431A49170A61180A704F70170C120ECA70DB228F70D97A9200A154DA7D997D12020A43134961180A70120A4A705A7E1B7E1202134327
:401040000F4AA21813701B0A537000280DD0D5239B00E4186B461B7AE5802375019B2661A3606B461B7B207123730BB0F0BDC046FC0F002072030000820300006F03000082
:401080006D030000F8B52D4B06001D68DB239B00EC18E37CA27C1B021343834216D9E279A079237A120202431B0413431A000021637A1B061343224A180AAA1813705070CE
:4010C000180C1B0E9070D370A174E174E27CA37C12021A43A07BE37B277C617C96421BD01A02130003433804034308061843FFF733FE134B020AEB1818705A70020C000EEA
:401100009A70D870E37CA27C1B02134301339BB2A3741B0AE374D9E7D5229200AD181B023F046A7D03433B4308060343501E824104485242024313401800F8BDFC0F00204B
:401140007A030000FFFF0000F0B589B00792DB22514B92001B68039001939E18F27DB07D337E120202431B0413431A00737E0F001B0613439F4201D300208BE0D121019A79
:40118000890018320492019ADB1B1932FF320592019A380052185489157B06936543290000F03CFC45437D1B21000290280000F035FC6B46444307001889FFF763FFF37B24
:4011C000B17B307C1B020B4300041A000300707C134300061843FFF7E7FC38182D1BFFF733FA0024079BA6B29C4239D0D122019B92009B185B899D422FD3039B012B10D00C
:40120000D122019B92009B181B7B01379F420ED3029B0027013302936B461889FFF732FF05E00020FFF7C6F90028E9D0A4E7DB22019B92009D18EB7BA97B287C1B020B43A5
:4012400000041A000300687C134300061843FFF7ABFC3818FFF7F8F90025069B9C4203D1039B012B15D10EE0039B012B04D1049B059A1B5D535503E0059B049A5B5D13558A
:4012800001350134AEE70020FFF794F9002800D072E7300009B0F0BDFC0F0020E32210B5174C92000021200000F079FC154B164A1C60C7239B00E250144A0433E250144BFB
:4012C000144A2360144B6360144BA360144BE360144B2361CE239B00E250134A043BE250124A0833E250124A0433E2504C33E218683BE250E72264339200E25010BDC04665
:4013000064010020FC0F0020A086010000093D002115000041150000F913000031140000211400001514000035150000E919000035170000E32310B502489B00C018FFF73F
:40134000C4F910BD6401002010B500F0F3FB03680C2B00D1FEE7FEE7F8B500250F49104B01394A1C14D000221F685C689E68A018B24203D0B858A0500432F8E70200DE6826
:40138000141AA64201D020C2FAE710330139E8E700F0D6FBFFF766F8FEE7C046010000008C1C0000002370B50A480B4C0B4D9A002100032B00D8A95801338150302BF6D15C
:4013C000FEF72AFE80220121D20513680B43136070BDC0460000002049130000000000008021044A10B5136809060B43136000F02DF810BD0000074010B5054C2378002B46
:4014000003D100F049F801232370FFF7E9FF10BD00050020014B18687047C04640030740024B18680F2318407047C046080307400F2204490B681340082BFBD0024B1860A0
:401440007047C0460802074040020740F021074B09051A680A43F0211A601A6809060A431A60034B1A88034B1A6070470000014002050020880F07400549064B0A68800666
:401480001340C02212051040184308607047C04620000740FFFFFFF307210020104A114B10B51A60104A114B1A60114B114A1360114A1160114A1360114B1860114B1860E0
:4014C000114B1860114B1860114B1860114B1860114B18601A68114B1A80FFF7CDFF10BD0F0000010000074001000080200007400701008000030740040307400002074019
:4015000004020740880E0740C80E0740480F0740080F0740C80F0740880F074002050020034A13681B0C1B04034313607047C04600000240014B18707047C04672000F402D
:40154000014B1878C0B2704772000F40F0B50024ADB0089403900994FF2800D9ABE0A14200D1A8E080220CA800F010FB02222300210001940AAD90004059002802D00918A3
:40158000034301920132222AF5D1002902D1002B00D093E0002702977F234D494D4C4E4E4E4A0A916B6025603260C046236806911B0F07920F2B04D022680023120F0A2A66
:4015C00001D02368DBB20893089B0493002B00D07BE000F01BFA424A424B116805901960049B04920993089B002B16D13E4A03990A920A9A09040A433C490A922560354AC9
:401600003160C0462168090F0F2903D01168090F0A2901D01368DBB20893089D002D39D1002F37D0802229000CA800F0B8FA019B029A0AAF9B00DA51069B079A0A937F23C4
:401640007B602760234B3260C0462268120F0F2A03D01A68120F0A2A01D01D68EDB20895089B002B16D1224A03990A920A9A09040A4320490A922760164A3160C04621687F
:40168000090F0F2903D01168090F0A2901D01368DBB20893099B002B09D1124A049912680A600993099B002B01D0099B0893059800F0B0F909E00423089306E0019B012743
:4016C0009B00EA58E950029266E708982DB0F0BDB6D7000008000040040000400400008008010B4004050020B6D8000005000080B6D9000006000080024B8000C31818685F
:4017000019607047400000201F2318401E3B8340014A13607047C04600E100E0034A044913689BB20B4313607047C0460CED00E00400FA0570B5802504002D02064BAC422F
:4017400005D9586800F058F9044BE418F6E79868604300F051F970BDCC0000200080FFFF10B5034B1B7B584300F046F910BDC046CC000020F0B5050087B000F047F9EB1EA2
:40178000049003932D2B5BD8304B1B789D4204D82F4B1C782F4BE4B21EE02F4B1B789D4204D82E4B1C782E4BE4B215E02D4B1B789D4204D82C4B1C782C4BE4B20CE02C4B75
:4017C0001B789D4204D82B4B1C782B4BE4B203E02A4B1C782A4BE4B21B78EA1EDBB20193284B294F9A5C059302922F2A04D92A2D02D919263E6008E03F233E681E40029B95
:40180000B34205D2204B029A1A60052000F0F4F81B4B1E4AED182B780520DBB213601C4B019A1C601B4B1A60FFF79AFF029BB34206D9059B039A05209B5C3B6000F0DCF8A9
:40184000049800F0E7F807B0F0BDC046C0F1FF0FC1F1FF0FC2F1FF0FC3F1FF0FC4F1FF0FC5F1FF0FC6F1FF0FC7F1FF0FC8F1FF0FC9F1FF0FCAF1FF0FCBF1FF0FCCF1FF0F92
:40188000CDF1FF0F321C00002CFF0B4028FF0B401CFF0B4020FF0B4010B500F0B7F8C021034A090213680B43136000F0B3F810BD00010B4010B5802400F0A8F80749084B2D
:4018C0000A68E4011A4022430A600A6813408022120213430B6000F09DF810BD00010B40FF3FFFFF70B5050000F090F80E4B04001A68C0231B02134011D10C480C490540AE
:4019000028000E680B4A3240104308600A68012B01D1FFF7C1FF200000F07CF870BDFFF7C9FF0123E9E7C04600010B400404040010020B40FBFBFBFF042270B5224C23680F
:40194000134213D021490B6813420CD0204BDD6908681540A8430860D9699143D9611B69002B00D098470420FFF7BCFF80232268DB001A4215D015490A681A420DD0144A25
:40198000D56908682B4098430860D169114B0B40D3615369002B00D098478020C000FFF7A1FF80232268DB021A420CD0074A12681A4204D0064B9B69002B00D0984780201E
:4019C000C002FFF78FFF70BD10020B40E000002008050020FFFBFFFF024B1868012318407047C04604000440024B1868C006C00F7047C046040204400230800804D0C046A7
:401A00000138FDD1C046C046C0467047EFF3108072B6704780F310887047C046002243088B4274D303098B425FD3030A8B4244D3030B8B4228D3030C8B420DD3FF22090282
:401A400012BA030C8B4202D31212090265D0030B8B4219D300E0090AC30B8B4201D3CB03C01A5241830B8B4201D38B03C01A5241430B8B4201D34B03C01A5241030B8B4272
:401A800001D30B03C01A5241C30A8B4201D3CB02C01A5241830A8B4201D38B02C01A5241430A8B4201D34B02C01A5241030A8B4201D30B02C01A5241CDD2C3098B4201D32B
:401AC000CB01C01A524183098B4201D38B01C01A524143098B4201D34B01C01A524103098B4201D30B01C01A5241C3088B4201D3CB00C01A524183088B4201D38B00C01A86
:401B0000524143088B4201D34B00C01A5241411A00D20146524110467047FFE701B5002000F006F802BDC0460029F7D076E770477047C046014B18687047C046440100203C
:401B40000E4B70B500251E000D4CE41AA410A54204D0AB00F35898470135F8E700F082F8084B00251E00084CE41AA410A54204D0AB00F35898470135F8E770BD701C000090
:401B8000701C0000701C00007C1C0000002310B59A4203D0CC5CC4540133F9E710BD03008218934202D019700133FAE77047002330B59A420BD0013AC45CCD5CAC4205D11D
:401BC0009A4202D00133002CF6D12500631B180030BD00000000000055504400534452495645000001000F4002320F400D330F400F410F40723F5B045F016C046D806FA0D5
:401C00007510770280048380870289408B208D10E2C0E6205220578059085B20641067028220830184108BA08D08D4E0D6C0D880E6E0030405060708090A0B0C0E0F101170
:401C400012131415161718191B1C1D1E1F2021222325262728292A2B2E2F30313233343543000000F8B5C046F8BC08BC9E4670472D02000035130000A5130000F8B5C04612
:401C8000F8BC08BC9E46704705020000A01C0000C800002080000000E00300000000000000000000010000000000E02EC05D00001800000000366E0104040400000000000E
:401CC00000000000000000000000000000000000000000000000000000000000601C0000000000000000000000000000000000000000000000000000000000000000000068
:401D000000000000000000000000000000000000000000000000000000000000E400002000000000000000000000000000000000000000000000000000000000000000009F
:401D40000000000000000000000000000000000000000000000000000000000000000000000000000000000000000000000000000000000000000000000000000000000063
:401D80000000000000000000000000000000000000000000000000000000000000000000000000000000000000000000000000000000000000000000000000000000000023
:401DC00000000000000000000000000000000000000000000000000000000000000000000000000000000000000000000000000000000000000000000000000000000000E3
:401E000000000000000000000000000000000000000000000000000000000000000000000000000000000000000000000000000000000000000000000000000000000000A2
:0200000490303A
:0200000017FBEC
:0200000490402A
:200000000000000000000000000000000000000000000000000000000000000000000000E0
:0200000490501A
:0C000000000204C81193110104D2298EE3
:0200000490600A
:0100000001FE
:00000001FF